:060000000A128A110C280F
:10000800FE00030EF0000A08F1000A128A11A32963
:100018000A128A110F28F801F901FA018312031351
:10002800B301B401B501B601B701B801B901BA010C
:10003800BB01BC01BD01BE01BF0183010A128A11C7
:100048008D280030F6000030F5000030F400003054
:10005800F300831203132308220421042004031944
:10006800362837288428F701F70A47280130F20094
:100078000310A00DA10DA20DA30DF20B3C28013019
:10008800F2007208F707A31F4A284B283A280130C4
:10009800F2000310F30DF40DF50DF60DF20B4D28DB
:1000A80023082702031D622822082602031D62284E
:1000B80021082502031D622820082402031C652844
:1000C800662875282008A4022108031C210FA50210
:1000D8002208031C220FA6022308031C230FA702D1
:1000E800731401300310A30CA20CA10CA00CFF3E4A
:1000F800031D76280130F702031D832884284B2826
:100108007608A3007508A2007408A1007308A0006F
:1001180008000A128A115C210A128A110A128A112D
:100128009A210A128A115030F2000030F3000A12A4
:100138008A1187210A128A11831203130608B00054
:10014800B1013008F2003108F3000A128A11872140
:100158000A128A110A128A1191210A128A1103308D
:1001680083120313B2000830B1007630B000B00B30
:10017800BB28B10BBB28B20BBB2800000A128A119E
:100188009A210A128A115130F2000030F3000A1243
:100198008A1187210A128A110030F200F3000A122C
:1001A8008A112E210A128A117208831203138800F9
:1001B8000A128A1191210A128A1103308312031339
:1001C800B2000830B1007630B000B00BE928B10BAE
:1001D800E928B20BE928000092280A128A110C2893
:1001E800283083120313940083160313910183129A
:1001F80003132808AC002908AD002A08AE002B0814
:10020800AF0002300310AC0DAD0DAE0DAF0DFF3ECB
:10021800031D06292F08A3002E08A2002D08A100FF
:100228002C08A0000030A7007A30A6001230A500E4
:100238000030A4000A128A1125200A128A1183129A
:1002480003132008FF3E83160313930094018715B8
:10025800071608000A128A117A210A128A118316CF
:10026800031391150A128A117A210A128A1183122C
:1002780003131308F400F5017408F6007508F70075
:100288000A128A117A210A128A1172037304031D51
:100298004E294F2953298316031391125629831681
:1002A8000313911611167708F3007608F200080078
:1002B80083160317880189018316031386018312A5
:1002C800031386018316031388018312031388011D
:1002D8000030AB000130AA008630A900A030A80089
:1002E8000A128A11F4200A128A11080083160313CD
:1002F80014197F2980297A2911081F39031D852996
:1003080086297A2908000A128A117A210A128A1182
:10031800720883120313930008000A128A117A21C3
:100328000A128A1183160313111508000A128A117A
:100338007A210A128A11831603131114080071080E
:0C0348008A00700E8300FE0E7E0E09007D
:04400E00D630FF3F6A
:00000001FF
