:060000000A128A110C280F
:10000800FE00030EF2000A08F3000A128A11E9281A
:100018000A128A110F28F601F701F801F901831372
:10002800203084003E300A128A1110210A128A11E7
:1000380083010A128A1120280A128A118E200A12B4
:100048008A11831203139F182A282B287C281F0C37
:10005800C100410C0F39053A031D332834284D28B7
:100068001F08C33918389F0000300A128A11182156
:100078000A128A1183120313C1004108F6000030E6
:100088000A128A1118210A128A1183120313860090
:100098006E281F0CC100410C0F39063A031D552864
:1000A80056286E281F08C33914389F0000300A12DA
:1000B8008A1118210A128A1183120313C1004108F8
:1000C800F60000300A128A1118210A128A118312C6
:1000D80003138800F701823083120313C200DD3056
:1000E800C100C10B7528C20B7528831203139F1416
:1000F800033083120313C3008A30C2005530C10095
:10010800C10B8428C20B8428C30B842825280A1213
:100118008A110C286030831603178800890183161A
:1001280003138601880103308900831203138601B3
:100138008801831603139F131F129F128312031340
:100148001F083F3940389F001F08C33914389F00E3
:100158004230F500F50BAE280000831203131F0888
:100168003F3940389F001F148B170B178C118316CB
:1001780003138C15851683120313BE01BF01C0013A
:1001880024300A128A11CB200A128A110800F400BE
:10019800831603138712741DD228D328DB288312F1
:1001A800031340088316031394008715E32883126A
:1001B80003133E0840048316031394008711740840
:1001C800831203133F0494000800831203138C1D49
:1001D800EE28EF2800290A128A1107210A128A112B
:1001E800F1007108F70076080A128A1127210A120D
:1001F8008A11831203138C1173088A00720E83000C
:10020800FE0E7E0E09000A128A1120210A128A1196
:10021800831203131308080064008001840A04068B
:100228000319003404061129831203131E08F4006D
:100238007408F5007508080083160313141C252993
:10024800262920290800F000700883120313930060
:0202580008009C
:04400E00D620FF3F7A
:00000001FF
