:060000000A128A110C280F
:10000800FE00030EF1000A08F2000A128A11DC2829
:100018000A128A110F28F701F801F901FA0183136E
:100028002030840048300A128A11F6200A128A11F8
:1000380083010A128A1120280A128A1191200A12B1
:100048008A11831203130711033083120313C900A3
:100058009730C800C80B2E28C90B2E287A080A1218
:100068008A1105210A128A117A08031D3C283D28A5
:100078004B280A128A11ED200A128A1183120313DF
:1000880086000808C8004808F900FA0159280A1229
:100098008A11ED200A128A118312031388000808B6
:1000A800C8004808F800FA01FA0A0330831203135B
:1000B800C9009730C800C80B5F28C90B5F28831296
:1000C800031307152B307706031D6B286C2872283D
:1000D8000130C8004808C707F7017B282D3077068C
:1000E800031D772878287B280130C702702806303E
:1000F80083120313CA001330C900AD30C800C80BFF
:100108008328C90B8328CA0B83280C308312031356
:10011800990025280A128A110C28831603178801CA
:1001280089018030831603138700860188018312B2
:100138000313860188018316031307151812181173
:1001480083160317871533308316031399009A0112
:100158008312031398171813181683160313981687
:100168008B170B17831203138C12831603138C1629
:10017800F301F401F50120300A128A11C6200A128F
:100188008A110800F600831603138712761DCD28FE
:10019800CE28D228750894008715D62873087504C8
:1001A80094008711760874048312031394000800DE
:1001B800831203138C1EE128E228E6281A08F000AF
:1001C8007008F70072088A00710E8300FE0E7E0E1A
:1001D80009000A128A11FE200A128A1183120313D7
:1001E8001308080064008001840A04060319003417
:1001F8000406F72883160313141C03290429FE2870
:0E0208000800F300730883120313930008002C
:04400E00D620FF3F7A
:00000001FF
