:060000000A128A110C280F
:10000800FE00030EF1000A08F2000A128A113929CB
:100018000A128A110F28F801F901FA018312031351
:10002800A701A80183010A128A111A280A128A1143
:1000380003210A128A11831203139F1483129F1833
:100048002628272851281F0CA400240C0F39053A0C
:10005800031D2F2830283B2800300A128A116A21F4
:100068000A128A1183120313A4002408F90000302D
:100078000A128A116A210A128A118312031388004C
:10008800823083120313A500DD30A400A40B4A2894
:10009800A50B4A28831203139F1410307902031CFE
:1000A800562857287E281030F3000030F4007908CD
:1000B800A400A5012408F5002508F6000A128A11F3
:1000C8009A200A128A11730883120313A6002608BD
:1000D800A700F030A4002408F30078080A128A1157
:1000E80055210A128A11790783120313A5002508DE
:1000F800F800892810307902031883288428892871
:100108007908A4002408F800A70179080506031D4A
:100118008E288F289328831603138915222883167F
:100128000313891122280A128A110C288312031337
:10013800A101F41FA028A128A828F309F409F30AAB
:100148000319F40AA101A10AF61FAB28AC28B528A7
:10015800F509F609F50A0319F60A0130F7007708D8
:10016800A106A201A301730874040319BC28BD28C1
:10017800F428A001A00ACB2801300310F30DF40DD8
:10018800FF3E031DC1280130F7007708A007F41FC0
:10019800CE28CF28C02801300310A20DA30DFF3EA2
:1001A800031DD02874087602031DDC287308750225
:1001B800031CDF28E028E7287308F5027408031CED
:1001C800F603F602221401300310F40CF30CFF3E80
:1001D800031DE8280130A002031DF328F428CF28C6
:1001E80021080319F828F928FE28A209A309A20A58
:1001F8000319A30A2308F4002208F300080020309A
:1002080083160317880089018316031306148614BE
:100218000130890085018701880183120313850154
:10022800860187018801831603130F178F160F1293
:100238000F149F131F129F12831203131F083F39B5
:1002480040389F001F08C33914389F004230F3001C
:10025800F30B2C290000831203131F148B170B17A1
:100268008B150B108B160B1108000B1C3C293D2914
:100278004E298312031306184229432947290130BE
:10028800F0007008850786184A294B294D29013046
:1002980085020B1072088A00710E8300FE0E7E0E16
:1002A8000900F600F501761C5A295B295F297308B5
:1002B800F4007408F5070310F30D0310F60C760824
:1002C800031D672968295729750808008312031335
:0C02D8001E08F3007308F400740808000E
:04400E00D430FF3F6C
:00000001FF
