:060000000A128A110C280F
:10000800FE00030EF1000A08F2000A128A111728EE
:100018000A128A110F28F701F801F901FA01830180
:100028000A128A11AC28831203138C1D1C281D2860
:1000380073281412141B212822282628941F2528E7
:1000480026282D281308F0007008F80014139413BC
:10005800141683160313941A322833284F281419B8
:10006800362837284F28831203131308F000700826
:10007800F8008C11141683160313141C4428452801
:100088003F288312031313088800A630F000F00BF2
:100098004B2800007028941A522853287028141DE1
:1000A800562857287028831203131308F000700885
:1000B800F800831603131410831203130608930021
:1000C8001416A630F000F00B6728000083160313FF
:1000D80014186F2870286A28831203138C11720869
:1000E8008A00710E8300FE0E7E0E09000130831611
:1000F80003178800890183160313051486018312E8
:1001080003138601831603138801831203138801DE
:10011800831603139F131F129F12831203131F08C2
:100128003F3940389F00C3309F054230F400F40B3C
:100138009B280000831203131F083F3940389F0093
:100148001F1450300A128A11DD200A128A11080081
:100158000A128A117A200A128A11831203139F182D
:10016800B628B728B1281F0CF500750C0F39003ACE
:10017800031DBF28C028CD2800300A128A11F72095
:100188000A128A11F5007508F90079088312031319
:1001980086008230F600DD30F500F50BD128F60B2D
:1001A800D128D628831203139F14B1280A128A1162
:1001B8000C28F30073088316031393003630831258
:1001C80003139400803083160313940001309100C8
:1001D800871507168B170B17831203138C118316B9
:1001E80003138C150800831203131E08F300730809
:0601F800F4007408080089
:04400E00D630FF3F6A
:00000001FF
