:060000000A128A110C280F
:10000800FE00030EF0000A08F1000A128A11AB295B
:100018000A128A110F28F801F901FA018313203016
:1000280084004B300A128A11A3210A128A11830113
:100038000A128A111F280A128A115C210A128A11CF
:100048000A128A119A210A128A115030F2000030DD
:10005800F3000A128A1187210A128A1183120313E4
:100068000608DB00DC015B08F2005C08F3000A12FA
:100078008A1187210A128A110A128A1191210A12F9
:100088008A11033083120313DD000830DC00763058
:10009800DB00DB0B4D28DC0B4D28DD0B4D28000069
:1000A8000A128A119A210A128A115130F20000307C
:1000B800F3000A128A1187210A128A110030F2000D
:1000C800F3000A128A112E210A128A117208831269
:1000D800031388000A128A1191210A128A11033027
:1000E80083120313DD000830DC007630DB00DB0B05
:1000F8007B28DC0B7B28DD0B7B280000013083127A
:100108000313DB005B08860724280A128A110C28CF
:100118000030F6000030F5000030F4000030F30045
:10012800831203134E084D044C044B0403199D28F5
:100138009E28EB28F701F70AAE280130F2000310D9
:10014800CB0DCC0DCD0DCE0DF20BA3280130F20056
:100158007208F707CE1FB128B228A1280130F20093
:100168000310F30DF40DF50DF60DF20BB4284E083F
:100178005202031DC9284D085102031DC9284C0805
:100188005002031DC9284B084F02031CCC28CD2858
:10019800DC284B08CF024C08031C4C0FD0024D083A
:1001A800031C4D0FD1024E08031C4E0FD2027314CC
:1001B80001300310CE0CCD0CCC0CCB0CFF3E031D34
:1001C800DD280130F702031DEA28EB28B22876085B
:1001D800CE007508CD007408CC007308CB00080069
:1001E800283083120313940083160313910183129A
:1001F80003135308D7005408D8005508D9005608E7
:10020800DA0002300310D70DD80DD90DDA0DFF3EF4
:10021800031D06295A08CE005908CD005808CC00FD
:100228005708CB000030D2007A30D1001230D0000D
:100238000030CF000A128A118C200A128A11831208
:1002480003134B08FF3E831603139300940187158D
:10025800071608000A128A117A210A128A118316CF
:10026800031391150A128A117A210A128A1183122C
:1002780003131308F400F5017408F6007508F70075
:100288000A128A117A210A128A1172037304031D51
:100298004E294F2953298316031391125629831681
:1002A8000313911611167708F3007608F200080078
:1002B80083160317880189018316031386018312A5
:1002C800031386018316031388018312031388011D
:1002D8000030D6000130D5008630D400A030D300DD
:1002E8000A128A11F4200A128A11080083160313CD
:1002F80014197F2980297A2911081F39031D852996
:1003080086297A2908000A128A117A210A128A1182
:10031800720883120313930008000A128A117A21C3
:100328000A128A1183160313111508000A128A117A
:100338007A210A128A118316031311140800640023
:100348008001840A0406031900340406A4297108EC
:0C0358008A00700E8300FE0E7E0E09006D
:04400E00D630FF3F6A
:00000001FF
