:060000000A128A110C280F
:10000800FE00030EF1000A08F2000A168A156D298F
:100018000A128A110F2883120313EF018313CC30BD
:100028008400DB300A168A1543210A128A118317C5
:1000380090308400AE300A168A1543210A128A11BC
:1000480083010A168A11592D83160313C4006B30D5
:10005800A8002808B100972F25304706031935282E
:10006800362842284708A80044088400280883172F
:1000780080000130A8002808C407972FB801B901EB
:10008800B601B701831203136A0884000A128A159D
:100098000A200A128A110A168A157E210A128A1162
:1000A800031C572858289E2883160313B801B90142
:1000B8000A30F3000030F400831603133908F60001
:1000C8003808F5000A168A15E9210A128A117408F7
:1000D80083160313B9007308B800831203136A0860
:1000E80084000A128A150A200A128A11D03E831641
:1000F8000313A800FF3003180030A9002808B80728
:100108000318B90A2908B9070130A800280883127A
:100118000313EA076A0884000A128A150A200A12D9
:100128008A110A168A157E210A128A1103189D2837
:100138009E285C28831203136A0884000A128A1511
:100148000A200A128A112E3A031DAB28AC28FE2871
:100158008316031337170130A800280883120313E6
:10016800EA0783160313C501C601EC280A30F30019
:100178000030F400831603134608F6004508F5001E
:100188000A168A15E9210A128A11740883160313BC
:10019800C6007308C500831203136A0884000A1294
:1001A8008A150A200A128A11D03E83160313A80062
:1001B800FF3003180030A9002808C5070318C60A2D
:1001C8002908C6070130A800280883120313EA0784
:1001D80083126A0884000A128A150A200A128A11F0
:1001E8000A168A157E210A128A110318FC28FD288E
:1001F800BA28062983160313C501C601371606292E
:1002080037152429013083120313EA07FF306A07E0
:1002180084000A128A150A200A128A118316031307
:10022800C700A800A9012908003A03191C29972F1B
:100238002808003A0319AD2F663A03190429972FA5
:1002480000303605A80007303705A900280829041A
:1002580003192F293029D42E371E33293429382958
:100268000630C5000030C60031088400831300083A
:10027800C000840A0008C100840A0008C200840A79
:100288000008C3000430A8002808B1074308F60096
:100298004208F5004108F4004008F3000030FA0075
:1002A8000030F9000030F8000030F7000A168A150F
:1002B800E3250A128A110318622963298029831603
:1002C80003134308F6004208F5004108F40040080B
:1002D800F3000A168A1555210A128A117608831620
:1002E8000313C3007508C2007408C1007308C00076
:1002F8000330B6040030B70483160313BE01BF01F0
:100308004308F6004208F5004108F4004008F300ED
:100318000030FA000030F9000030F8000030F70033
:100328000A168A1547230A128A1103189C299D293F
:100338009D2A031083160313420D430D823EBE000F
:10034800FF3003180030BF00FF30BE070318BF0A94
:10035800FF30BF070330F3000030F4003F08F60019
:100368003E08F5000A168A15E9210A128A1174084E
:1003780083160313BF007308BE000A3083120313E9
:10038800A0000030A100831603133F088312031353
:10039800A300831603133E0883120313A2000A1650
:1003A8008A15FE240A128A11831203132108831660
:1003B8000313BF0083120313200883160313BE0020
:1003C800BF1FE729E829EE29FF30BE070318BF0A37
:1003D800FF30BF073E03FF3A0A128A159D240A120E
:1003E8008A1183120313450883160313BD00831271
:1003F8000313440883160313BC0083120313430832
:1004080083160313BB0083120313420883160313D6
:10041800BA00430883120313AB0083160313420880
:1004280083120313AA0083160313410883120313CC
:10043800A90083160313400883120313A800831628
:1004480003133D0883120313AF00831603133C08FC
:1004580083120313AE00831603133B08831203139E
:10046800AD00831603133A0883120313AC000A1273
:100478008A153C210A128A11831203132B0883164A
:100488000313BD00831203132A0883160313BC0049
:1004980083120313290883160313BB008312031363
:1004A800280883160313BA003D08F6003C08F50037
:1004B8003B08F4003A08F3003F30FA008030F900B6
:1004C8000030F8000030F7000A168A15E3250A12F2
:1004D8008A110318702A712A7A2AFF3083160313A7
:1004E800BE070318BF0AFF30BF079D2A83160313F0
:1004F8003D08F6003C08F5003B08F4003A08F30014
:100508004130FA002030F9000030F8000030F700E0
:100518000A168A15E3250A128A11031C942A952AB9
:100528009D2A013083160313BE070318BF0A003043
:10053800BF07831603134608803AFF0080307F0206
:10054800031DA82A0D3045020318AB2AAC2AF32A4A
:100558008316031345080A168A11C4200A128A1141
:10056800831203134508D9004408D8004308D7006C
:100578004208D60083160313430883120313DD00D1
:1005880083160313420883120313DC008316031334
:10059800410883120313DB008316031340088312F8
:1005A8000313DA000A168A11D1220A128A11831259
:1005B8000313590883160313C3008312031358083F
:1005C80083160313C20083120313570883160313F9
:1005D800C10083120313560883160313C000831641
:1005E80003133F08803AFF0080307F02031DFE2A74
:1005F8000A303E020318012B022B532B83160313D8
:100608004308F6004208F5004108F4004008F300EA
:100618000030FA000030F9000030F8000030F70030
:100628000A168A1547230A128A1103181C2B1D2B38
:10063800C52B83160313430883120313D8008316AC
:100648000313420883120313D700831603134108C8
:1006580083120313D600831603134008831203136F
:10066800D5000A168A1567250A128A118312031300
:100678005808570456045504031D432B442BC52B17
:10068800831603133F08803AFF0080307F02031D62
:100698004F2B02303E02031C522B532BC52B8316C3
:1006A80003133D08F6003C08F5003B08F4003A083F
:1006B800F3004030FA008930F9007030F8005F30FC
:1006C800F7000A168A15E3250A128A1103186D2BFA
:1006D8006E2B772BF73083160313BE070318BF0A58
:1006E800FF30BF077F2BF83083160313BE070318AC
:1006F800BF0AFF30BF073E080A128A159D240A1256
:100708008A1183120313450883160313BD0083124D
:100718000313440883160313BC008312031343080E
:1007280083160313BB0083120313420883160313B3
:10073800BA004308F6004208F5004108F4004008F2
:10074800F3003D08FA003C08F9003B08F8003A08B5
:10075800F7000A168A1106200A128A1176088316EB
:100768000313B5007508B4007408B3007308B20029
:100778000030C3000030C2000030C1000030C000AB
:100788002B2C83160313430883120313D8008316F4
:100798000313420883120313D70083160313410877
:1007A80083120313D600831603134008831203131E
:1007B800D5000A168A1567250A128A1183120313AF
:1007C800580883160313B5008312031357088316BA
:1007D8000313B40083120313560883160313B300DC
:1007E80083120313550883160313B2003508F60065
:1007F8003408F5003308F4003208F30000300A1614
:100808008A1587260A128A11760883160313A3000D
:100818007508A2007408A1007308A0004308A70087
:100828004208A6004108A5004008A4000A168A1537
:1008380097230A128A11831603132308C300220878
:10084800C2002108C1002008C000BE01BF01C701C5
:10085800C70A4708A80001300310A80DFF3E031D72
:10086800302C0310280D693E84000A128A150A20CC
:100878000A128A11A9000A128A150A200A128A1174
:10088800AA000A128A150A200A128A11AB000A1253
:100898008A150A200A128A11AC002C083502031D99
:1008A8005F2C2B083402031D5F2C2A083302031D1A
:1008B8005F2C290832020318622C632C642C6E2CDE
:1008C8000130A8002808C7070A304706031D6D2C09
:1008D8006E2C2D2C47084507A80046080318460A21
:1008E800A9003E082807AA003F0803183F0A29075D
:1008F800AB002A08B8022B08031CB903B902450843
:1009080046040319882C892C8F2CFF30B80703184C
:10091800B90AFF30B90703303605A800003037059B
:10092800A9002808290403199A2C9B2CB02CFF3005
:10093800B8070318B90AFF30B907B02C203083165E
:100948000313A80044088400280883178000013096
:10095800A8002808C4079B2C3908803AFF0080307B
:100968007F02031DB92C013038020318BC2CBD2CA2
:10097800A22C0330831603133605A8000030370570
:10098800A900280829040319CA2CCB2C3D2D2D3089
:10099800A800440884002808831780000130A800B4
:1009A8002808C4073D2D4708A80001300310A80DEA
:1009B800FF3E031DDA2C0310280D693E84000A123D
:1009C8008A150A200A128A11F3000A128A150A20C7
:1009D8000A128A11F4000A128A150A200A128A11C8
:1009E800F5000A128A150A200A128A11F60035083B
:1009F800FA003408F9003308F8003208F7000A163C
:100A08008A1596240A128A11760883160313BD00E4
:100A18007508BC007408BB007308BA000030F60003
:100A28000030F5000030F4000A30F3003D08FA0009
:100A38003C08F9003B08F8003A08F7000A168A153E
:100A4800E7230A128A11760883160313BD00750876
:100A5800BC007408BB007308BA003A08303EA8000E
:100A6800440884002808831780000130A80028085B
:100A7800C4070130C702470A031D432D442DD72C54
:100A8800582D303083160313A80044088400280822
:100A9800831780000130A8002808C407FF30BE076C
:100AA8000318BF0AFF30BF073F08803AFF008030B5
:100AB8007F02031D612D01303E020318642D652D50
:100AC800452D831603134608803AFF0080307F02C5
:100AD800031D702D09304502031C732D742D7B2DC9
:100AE800083083160313A8002808C700812D831631
:100AF80003134508A8002808C7004708A800A9014B
:100B08002808C5022908031CC603C602470803199A
:100B18008E2D8F2D9A2D2E30A80044088400280889
:100B2800831780000130A8002808C40747080A1264
:100B38008A159D240A128A11831203134508831605
:100B48000313B00083120313440883160313AF0082
:100B580083120313430883160313AE00831203138F
:100B6800420883160313AD00300883120313AF0045
:100B7800831603132F0883120313AE00831603137F
:100B88002E0883120313AD00831603132D08831256
:100B98000313AC0083160313430883120313AB003B
:100BA80083160313420883120313AA008316031340
:100BB800410883120313A900831603134008831204
:100BC8000313A8000A128A153C210A128A118312FB
:100BD80003132B08D8002A08D7002908D6002808AC
:100BE800D5000A168A1567250A128A11831203137B
:100BF800580883160313B500831203135708831686
:100C08000313B40083120313560883160313B300A7
:100C180083120313550883160313B200B42E470832
:100C2800A80001300310A80DFF3E031D162E031067
:100C3800280D693E84000A128A150A200A128A11B0
:100C4800F3000A128A150A200A128A11F4000A12FD
:100C58008A150A200A128A11F5000A128A150A2032
:100C68000A128A11F6003508FA003408F900330828
:100C7800F8003208F7000A168A1596240A128A1113
:100C8800760883160313BD007508BC007408BB0002
:100C98007308BA000030F6000030F5000030F400A8
:100CA8000A30F3003D08FA003C08F9003B08F80058
:100CB8003A08F7000A168A15E7230A128A117608F5
:100CC80083160313BD007508BC007408BB007308C5
:100CD800BA003A08303EA800440884002808831760
:100CE80080000130A8002808C4074708A800013080
:100CF8000310A80DFF3E031D7C2E0310280D693E2E
:100D080084000A128A150A200A128A11F3000A12AC
:100D18008A150A200A128A11F4000A128A150A2072
:100D28000A128A11F5000A128A150A200A128A1173
:100D3800F6003508FA003408F9003308F8003208DC
:100D4800F7000A168A15E7230A128A11760883160D
:100D58000313B5007508B4007408B3007308B20033
:100D68000130C702470A031DBA2EBB2E132ECD2E03
:100D78003030A80044088400280883178000013018
:100D8800A8002808C407FF30C5070318C60AFF30A3
:100D9800C60745084604031DD22ED32EBC2E972F16
:100DA80045084604031DD92EDA2EE82E35083404EA
:100DB80033043204031DE12EE22EE82E0130C5076C
:100DC8000318C60A0030C6074608803A803C031D4F
:100DD800EF2E450847020318F22EF32EFA2E83163B
:100DE80003134508A8002808C700122F8316031309
:100DF8004608803AA80080302802031D052F4708BE
:100E080045020318082F092F122F831603134708CA
:100E1800A800A9012808C5002908C60083160313DD
:100E2800380839040319192F1A2F2C2F03303605C7
:100E3800A80000303705A900280829040319252F20
:100E4800262F2C2FFF30B8070318B90AFF30B9072F
:100E5800371F2F2F302F4B2F4608803AA80039080C
:100E6800803A2802031D3A2F3808450203183D2FFF
:100E78003E2F472F831603134508B8024608031C64
:100E8800B903B9024B2F83160313B801B901390806
:100E9800803A803C031D522F380847020318552F0B
:100EA800562F622F831603134708A800A9012808A4
:100EB800B8022908031CB903B902662F8316031365
:100EC800B801B9013808390403196B2F6C2F832F27
:100ED8002030A800440884002808831780000130C7
:100EE800A8002808C407FF30B8070318B90AFF305C
:100EF800B90738083904031D822F832F6C2F03305C
:100F08003605A80000303705A90028082904031968
:100F18008E2F8F2F972F2D30A80044088400280883
:100F2800831780003D28013083120313EA07FF303E
:100F38006A0784000A128A150A200A128A1183167F
:100F48000313A8002808C7004708031DAC2FAD2FBE
:100F5800302844088400831780010800F901FA0149
:100F6800DC2F79087407F7007508F6000318F60AED
:100F7800F91FBF2FF6037608F800780883120313C9
:100F8800FF00770884000A128A1500200A128A11C5
:100F98000A168A154B210A128A110130F90703181B
:100FA800FA0A0030FA071330F600F60BD92FDC2FB7
:100FB80079087407F7007508F6000318F60AF91F90
:100FC800E62FF6037608F800780883120313FF006B
:100FD800770884000A128A1500200A128A11003A3A
:100FE800031DF72FF82FB52F0800F300730883129D
:060FF80003138500080050
:10100000FF1B0A2883137F1883170008840A03191B
:10101000FF0A080008308A000408840A82070034A6
:101020000034003480343F34003400342034413400
:1010300000340034C8344234003400347A34443448
:10104000003440341C34463400345034C334473404
:1010500000342434743449348034963418344B3496
:101060002034BC34BE344C3428346B346E344E34AB
:10107000F934023415345034EC347834AD346034FF
:10108000CA34F234493471340034003480343F348B
:10109000CD34CC34CC343D340A34D73423343C34CE
:1010A0006F34123483343A341734B734D13438348B
:1010B000AC34C53427343734BD3437348634353412
:1010C0009534BF34D63433347734CC342B34323483
:1010D0005F34703489343034FF34E634DB342E34FA
:1010E0000834E5343C341E3460344234A2340D34C8
:1010F00001340034003400340A3400340034003445
:101100006434003400340034E834033400340034F0
:101110001034273400340034A034863401340034D1
:10112000403442340F3400348034963498340034E0
:101130000034E134F53405340034CA349A343B3495
:1011400049346E34633472346D3465346E347434BF
:101150006134723428342B342934203470346134AF
:1011600072346134203464346534633472346534E9
:101170006D3465346E3474346134723428342D34F3
:1011800029340D340034533431343A34203420348B
:101190002034533432343A3420342034203453341D
:1011A00033343A340034533431343A34203425342F
:1011B00033342E343234663456340D3400345334E0
:1011C00032343A342034253433342E3432346634D5
:1011D00056340D340034533433343A342034253407
:1011E00033342E34303466340034253433342E34E2
:0811F000323466345634003439
:10120400730874040319072908293729F801F80A0F
:10121400162901300310F30DF40DFF3E031D0C29B4
:101224000130F7007708F807F41F19291A290B2948
:1012340074087602031D202973087502031C2329F0
:1012440024292A297308F5027408031CF603F602FC
:1012540001300310F40CF30CFF3E031D2B29013065
:10126400F802031D362937291A297608F40075086F
:10127400F3000800831203132B088039B0003008F0
:10128400B5002B08B0003007B1003108BB00AA1F1D
:101294004C294D294E293B143B0803195229532943
:1012A40062293B0A031D5729582960290030AB00E5
:1012B4000030AA000030A9000030A800AA176A294B
:1012C4000030AB000030AA000030A9000030A800B4
:1012D4002F088039B0003008B5062F08B000300759
:1012E400B1003108BA00AE1F782979297A293A1455
:1012F4003A0803197E297F298E293A0A031D832976
:1013040084298C290030AF000030AE000030AD00DD
:101314000030AC00AE1796290030AF000030AE00AC
:101324000030AD000030AC003A0803199A299B291B
:10133400A0293B08031D9F29A029A9290030AB003F
:101344000030AA000030A9000030A8009C2C280816
:10135400B0003008F3002E080A168A150E220A126D
:101364008A15740883120313C1007308C00040086F
:10137400B000B101B201B3013308B9003208B800BA
:101384003108B7003008B6004108B000B101B2011D
:10139400B3013308BF003208BE003108BD00300875
:1013A400BC002908B0003008F3002D080A168A157D
:1013B4000E220A128A15740883120313C1007308DB
:1013C400C0004008B000B101B201B3013008B60753
:1013D400310803110318013E0319F129B707320834
:1013E40003110318013E0319F829B8073308031140
:1013F4000318013E0319FF29B9074108B000B101E0
:10140400B201B3013008BC07310803110318013ECF
:1014140003190D2ABD07320803110318013E0319ED
:10142400142ABE07330803110318013E03191B2AAB
:10143400BF072A08B0003008F3002C080A168A15E2
:101444000E220A128A15740883120313C10073084A
:10145400C0004008B000B101B201B3013008B607C2
:10146400310803110318013E0319392AB70732085A
:1014740003110318013E0319402AB8073308031166
:101484000318013E0319472AB9074108B000B10106
:10149400B201B3013008BC07310803110318013E3F
:1014A4000319552ABD07320803110318013E031915
:1014B4005C2ABE07330803110318013E0319632A8B
:1014C400BF070830B0000310B60DB70DB80DB90D45
:1014D400B00B652A2908B0003008F3002C080A165E
:1014E4008A150E220A128A15740883120313C10086
:1014F4007308C0004008B0004108B100B201B30154
:101504003008B607310803110318013E03198B2A6A
:10151400B707320803110318013E0319922AB807CA
:10152400330803110318013E0319992AB90728083F
:10153400B0003008F3002D080A168A150E220A128C
:101544008A15740883120313C1007308C00040088D
:10155400B0004108B100B201B3013008B607310848
:1015640003110318013E0319B82AB70732080311FF
:101574000318013E0319BF2AB807330803110318DF
:10158400013E0319C62AB9070830B0000310B60D8E
:10159400B70DB80DB90DB00BC82A2808B000300833
:1015A400F3002C080A168A150E220A128A157408EA
:1015B40083120313C1007308C0004008B00041083F
:1015C400B100B201B3013008B607310803110318A2
:1015D400013E0319EE2AB707320803110318013E2E
:1015E4000319F52AB807330803110318013E031938
:1015F400FC2AB9072908B0003008F3002E080A169F
:101604008A150E220A128A15740883120313C10064
:101614007308C0004008B0004108B100B201B30132
:101624003008BC07310803110318013E03191B2BB2
:10163400BD07320803110318013E0319222BBE070C
:10164400330803110318013E0319292BBF072A0885
:10165400B0003008F3002D080A168A150E220A126B
:101664008A15740883120313C1007308C00040086C
:10167400B0004108B100B201B3013008BC07310821
:1016840003110318013E0319482BBD073208031147
:101694000318013E03194F2BBE0733080311031827
:1016A400013E0319562BBF072A08B0003008F30087
:1016B4002E080A168A150E220A128A157408831235
:1016C4000313C1007308C0004008B0004108B10012
:1016D400B201B30108300310B00DB10DB20DB30D5A
:1016E400FF3E031D6D2B3008BC073108031103189E
:1016F400013E03197E2BBD07320803110318013E76
:101704000319852BBE07330803110318013E03197F
:101714008C2BBF073608B0003708B1003808B20078
:101724003908B30018300310B30CB20CB10CB00C70
:10173400FF3E031D952B3008BC0731080311031825
:10174400013E0319A62BBD07320803110318013EFD
:101754000319AD2BBE07330803110318013E031907
:10176400B42BBF070830B0000310B60DB70DB80D89
:10177400B90DB00BB62B3B083A07B000B101B10D5F
:101784003008823EC00031080318013EFF3EC1000C
:10179400E82B0130B0000310BC0DBD0DBE0DBF0D14
:1017A400B00BCD2BB91FD72BD82BD92B3C14013020
:1017B400B0000310B60DB70DB80DB90DB00BDB2B8F
:1017C400FF30C0070318C10AFF30C107BE1FEB2B4F
:1017D400EC2BCB2BBA01B91FF02BF12B0D2CFF30C6
:1017E4003605B000FF303705B100FF303805B200D0
:1017F4007F303905B300330832043104300403194F
:10180400042C052C082CBA01BA0A0D2C3C1C0B2CF8
:101814000C2C0D2C052C3A080319112C122C432CDA
:101824000130BC07003003180130BD070030031835
:101834000130BE07003003180130BF073F1C232CC2
:10184400242C432C3C08B0003D08B1003E08B200F3
:101854003F08B3000130B400330DB30CB20CB10C2B
:10186400B00CB40B2E2C3308BF003208BE00310874
:10187400BD003008BC000130C0070318C10A0030A5
:10188400C1074108803AFF0080307F02031D4C2CC1
:10189400FF304002031C4F2C502C5B2C7F308312F2
:1018A4000313BF008030BE000030BD000030BC0018
:1018B400902C831203134108803AFF0080307F028A
:1018C400031D662C013040020318692C6A2C762C07
:1018D400003083120313BF000030BE000030BD008F
:1018E4000030BC00B501902C831203134008B000F3
:1018F4003008BB00FF30BC05FF30BD057F30BE059E
:101904000030BF053B1C872C882C892CBE173B0854
:10191400B0000310300CB1003108BF003508B0002E
:101924003008BF043F08AB003E08AA003D08A900E8
:101934003C08A800080083120313D400D41FA32C6E
:10194400A42C532ED409D40A5408803A123E031C02
:10195400AC2CAD2C972D0A30A0000030A100540807
:10196400F500F601F51BF6036430F3000030F400D3
:101974000A168A153D240A128A1574088312031361
:10198400A3007308A2000A168A15FE240A128A15F7
:10199400831203132008C60001300310C60DFF3E56
:1019A400031DCF2C0310460D593E84000A128A15DC
:1019B4000A200A128A15C7000A128A150A200A1276
:1019C4008A15C8000A128A150A200A128A15C90043
:1019D4000A128A150A200A128A15CA004A08AB009C
:1019E4004908AA004808A9004708A8006430A000D4
:1019F4000030A1005408A200A301A21BA3030A16ED
:101A04008A15FE240A128A15831203132008CB00B8
:101A140001300310CB0DFF3E031D0B2D03104B0DA6
:101A24007D3E84000A128A150A200A128A15CC0007
:101A34000A128A150A200A128A15CD000A128A157A
:101A44000A200A128A15CE000A128A150A200A12DE
:101A54008A15CF004F08AF004E08AE004D08AD0008
:101A64004C08AC000A128A153C210A128A1583120A
:101A740003132B08D3002A08D2002908D100280810
:101A8400D0000A30F3000030F4005408F500F601E9
:101A9400F51BF6030A168A153D240A128A157308E3
:101AA40083120313C60001300310C60DFF3E031D4D
:101AB400562D0310460D353E84000A128A150A205D
:101AC4000A128A15C7000A128A150A200A128A15F0
:101AD400C8000A128A150A200A128A15C9000A12B5
:101AE4008A150A200A128A15CA004A08AB00490856
:101AF400AA004808A9004708A8005308AF005208E4
:101B0400AE005108AD005008AC000A128A153C2101
:101B14000A128A15831203132B08C5002A08C4006D
:101B24002908C3002808C200FF2F5408803A753ED4
:101B3400031C9D2D9E2D262E0A30F3000030F40048
:101B44005408F500F601F51BF6030A168A153D2420
:101B54000A128A15730883120313C6000130031096
:101B6400C60DFF3E031DB12D0310460D353E840006
:101B74000A128A150A200A128A15C7000A128A153F
:101B84000A200A128A15C8000A128A150A200A12A3
:101B94008A15C9000A128A150A200A128A15CA006F
:101BA4004A08AB004908AA004808A9004708A80049
:101BB4000A30A0000030A1005408A200A301A21B17
:101BC400A3030A168A15FE240A128A158312031324
:101BD4002008CB0001300310CB0DFF3E031DED2D7B
:101BE40003104B0D593E84000A128A150A200A126A
:101BF4008A15CC000A128A150A200A128A15CD0009
:101C04000A128A150A200A128A15CE000A128A15A7
:101C14000A200A128A15CF004F08AF004E08AE0002
:101C24004D08AD004C08AC000A128A153C210A127A
:101C34008A15831203132B08C5002A08C400290837
:101C4400C3002808C200FF2F5408C6000130031047
:101C5400C60DFF3E031D292E0310460D353E84009C
:101C64000A128A150A200A128A15C7000A128A154E
:101C74000A200A128A15C8000A128A150A200A12B2
:101C84008A15C9000A128A150A200A128A15CA007E
:101C94004A08C5004908C4004808C3004708C200F0
:101CA400FF2F5408803A123E031C592E5A2E442FFB
:101CB4000A30A0000030A1005408F500F601F51B1D
:101CC400F6036430F3000030F4000A168A153D244C
:101CD4000A128A15740883120313A3007308A2005E
:101CE4000A168A15FE240A128A1583120313200881
:101CF400C60001300310C60DFF3E031D7C2E0310E9
:101D0400460D253E84000A128A150A200A128A15F5
:101D1400C7000A128A150A200A128A15C8000A1274
:101D24008A150A200A128A15C9000A128A150A207D
:101D34000A128A15CA004A08AB004908AA004808D2
:101D4400A9004708A8006430A0000030A10054088E
:101D5400A200A301A21BA3030A168A15FE240A12D9
:101D64008A15831203132008CB0001300310CB0D16
:101D7400FF3E031DB82E03104B0D493E84000A128A
:101D84008A150A200A128A15CC000A128A150A201A
:101D94000A128A15CD000A128A150A200A128A1517
:101DA400CE000A128A150A200A128A15CF004F089B
:101DB400AF004E08AE004D08AD004C08AC000A124E
:101DC4008A153C210A128A15831203132B08D300A7
:101DD4002A08D2002908D1002808D0000A30F300CC
:101DE4000030F4005408F500F601F51BF6030A165A
:101DF4008A153D240A128A15730883120313C60038
:101E040001300310C60DFF3E031D032F0310460DC2
:101E1400013E84000A128A150A200A128A15C70094
:101E24000A128A150A200A128A15C8000A128A158B
:101E34000A200A128A15C9000A128A150A200A12EF
:101E44008A15CA004A08AB004908AA004808A90034
:101E54004708A8005308AF005208AE005108AD006F
:101E64005008AC000A128A153C210A128A15831202
:101E740003132B08C5002A08C4002908C300280836
:101E8400C200FF2F5408803A753E031C4A2F4B2F83
:101E9400D32F0A30F3000030F4005408F500F601A3
:101EA400F51BF6030A168A153D240A128A157308CF
:101EB40083120313C60001300310C60DFF3E031D39
:101EC4005E2F0310460D013E84000A128A150A2073
:101ED4000A128A15C7000A128A150A200A128A15DC
:101EE400C8000A128A150A200A128A15C9000A12A1
:101EF4008A150A200A128A15CA004A08AB00490842
:101F0400AA004808A9004708A8000A30A000003029
:101F1400A1005408A200A301A21BA3030A168A1558
:101F2400FE240A128A15831203132008CB00013001
:101F34000310CB0DFF3E031D9A2F03104B0D253EBE
:101F440084000A128A150A200A128A15CC000A1281
:101F54008A150A200A128A15CD000A128A150A2047
:101F64000A128A15CE000A128A150A200A128A1544
:101F7400CF004F08AF004E08AE004D08AD004C082E
:101F8400AC000A128A153C210A128A158312031323
:101F94002B08C5002A08C4002908C3002808C20069
:101FA400FF2F5408C60001300310C60DFF3E031D69
:101FB400D62F0310460D013E84000A128A150A200A
:101FC4000A128A15C7000A128A150A200A128A15EB
:101FD400C8000A128A150A200A128A15C9000A12B0
:101FE4008A150A200A128A15CA004A08C500490837
:0C1FF400C4004808C3004708C2000800F1
:10200C000310750D760D83120313A0002008A60093
:10201C002608031D122813281C280030F600003057
:10202C00F5000030F4000030F300C3280310790DE4
:10203C007A0DA0002008A5002508031D26282728B6
:10204C0028281328F517FF30F305FF30F405FF306F
:10205C00F5050030F605F917FF30F705FF30F805E8
:10206C00FF30F9050030FA050030A4000030A30061
:10207C000030A2000030A1007F30A602A03025075E
:10208C00A0002008A6022030A0002008A5000130E6
:10209C00A0000310A10DA20DA30DA40DA00B4F28A1
:1020AC007A087602031D642879087502031D6428DA
:1020BC0078087402031D642877087302031C6728D0
:1020CC00682877287708F3027808031C780FF40245
:1020DC007908031C790FF5027A08031C7A0FF602B3
:1020EC0021140130A0000310F30DF40DF50DF60DC5
:1020FC00A00B79280130A502031D852886284D28C0
:10210C00A61F89288A28A4282608803A9F3E0318EF
:10211C00902891289228132801300310A40CA30CAA
:10212C00A20CA10CFF3E031D93280130A000200837
:10213C00A607031DA228A3289228BB28203026021C
:10214C00031CA928AA28B62813280130A0000310C4
:10215C00A10DA20DA30DA40DA00BAD280130A6025C
:10216C002608031DBA28BB28AB282408F600230830
:10217C00F5002208F4002108F30008008312031371
:10218C00D5006E305502031CCC28CD28DC293F30FD
:10219C00AB000030AA000030A9000030A800643069
:1021AC00A0000030A1005508C600C7014608A200D7
:1021BC004708A3000A168A1501230A168A118312EE
:1021CC0003132008C80001300310C80DFF3E031D87
:1021DC00EA280310480D7D3E84000A128A150A2055
:1021EC000A168A11C9000A128A150A200A168A11BF
:1021FC00CA000A128A150A200A168A11CB000A1282
:10220C008A150A200A168A11CC004C08AF004B081C
:10221C00AE004A08AD004908AC000A128A153C21F0
:10222C000A168A11831203132B08D4002A08D30030
:10223C002908D2002808D1000A30A0000030A100E3
:10224C005508C600C7014608F5004708F60064307B
:10225C00F3000030F4000A128A1502210A168A11C2
:10226C00740883120313A3007308A2000A168A15BC
:10227C0001230A168A11831203132008C8000130A7
:10228C000310C80DFF3E031D46290310480D593E8F
:10229C0084000A128A150A200A168A11C9000A1229
:1022AC008A150A200A168A11CA000A128A150A20EF
:1022BC000A168A11CB000A128A150A200A168A11EC
:1022CC00CC004C08AB004B08AA004A08A9004908EE
:1022DC00A8005408AF005308AE005208AD005108D6
:1022EC00AC000A128A153C210A168A1183120313B8
:1022FC002B08D0002A08CF002908CE002808CD00D2
:10230C000A30F3000030F4005508C600C701460837
:10231C00F5004708F6000A128A1502210A168A11DE
:10232C00730883120313C80001300310C80DFF3E5D
:10233C00031D9B290310480D353E84000A128A1593
:10234C000A200A168A11C9000A128A150A200A16CE
:10235C008A11CA000A128A150A200A168A11CB00A1
:10236C000A128A150A200A168A11CC004C08AB00F6
:10237C004B08AA004A08A9004908A8005008AF0059
:10238C004F08AE004E08AD004D08AC000A128A157D
:10239C003C210A168A11831203132B08C5002A0844
:1023AC00C4002908C3002808C200D02A0B305502EB
:1023BC00031CE129E2298D2A3F30AB000030AA0032
:1023CC000030A9000030A8000A30A0000030A100A5
:1023DC005508C600C7014608A2004708A3000A1604
:1023EC008A1501230A168A11831203132008C800C8
:1023FC0001300310C80DFF3E031DFF290310480DCB
:10240C00593E84000A128A150A200A168A11C9003C
:10241C000A128A150A200A168A11CA000A128A158B
:10242C000A200A168A11CB000A128A150A200A16EB
:10243C008A11CC004C08AF004B08AE004A08AD0026
:10244C004908AC000A128A153C210A168A1183121B
:10245C0003132B08D4002A08D3002908D20028081B
:10246C00D1000A30F3000030F4005508C600C70153
:10247C004608F5004708F6000A128A1502210A16CA
:10248C008A11730883120313C80001300310C80D9E
:10249C00FF3E031D4C2A0310480D353E84000A12E2
:1024AC008A150A200A168A11C9000A128A150A20EE
:1024BC000A168A11CA000A128A150A200A168A11EB
:1024CC00CB000A128A150A200A168A11CC004C0875
:1024DC00AB004B08AA004A08A9004908A8005408F8
:1024EC00AF005308AE005208AD005108AC000A1200
:1024FC008A153C210A168A11831203132B08C50076
:10250C002A08C4002908C3002808C200D02A3F307A
:10251C00AB000030AA000030A9000030A80055081C
:10252C00C60001300310C60DFF3E031D982A031090
:10253C00460D353E84000A128A150A200A168A11A5
:10254C00C7000A128A150A200A168A11C8000A1234
:10255C008A150A200A168A11C9000A128A150A203D
:10256C000A168A11CA004A08AF004908AE0048088A
:10257C00AD004708AC000A128A153C210A168A11D4
:10258C00831203132B08C5002A08C4002908C300B2
:10259C002808C20008008312031359088039DE0092
:1025AC005E08E6005908DE005E07DF005F08E80001
:1025BC00D81FE12AE22AE32A681468080319E72ADB
:1025CC00E82AF82A680A031DEC2AED2AF52A0030BD
:1025DC00D9000030D8000030D7000030D600D81712
:1025EC00D901002B0030D9000030D8000030D700C2
:1025FC000030D6005D088039DE005E08E700670811
:10260C00660603190A2B0B2B0C2B66175D08DE00D4
:10261C005E07DF005F08E700DC1F152B162B172B5E
:10262C006714670803191B2B1C2B2C2B670A031D23
:10263C00202B212B292B0030DD000030DC0000305A
:10264C00DB000030DA00DC17DD01342B0030DD005C
:10265C000030DC000030DB000030DA006808670274
:10266C000318392B3A2B7E2B661F3D2B3E2B422B0E
:10267C008030DE005E08E6066808DE005E08E900D1
:10268C006708DE005E08E8006908DE005E08E70007
:10269C005608DE005E08E9005A08DE005E08D60027
:1026AC006908DE005E08DA005708DE005E08E90003
:1026BC005B08DE005E08D7006908DE005E08DB0000
:1026CC005808DE005E08E9005C08DE005E08D800F1
:1026DC006908DE005E08DC005908DE005E08E900CF
:1026EC005D08DE005E08D9006908DE005E08DD00CA
:1026FC00E9016708DE00DF015F08E10068085E029F
:10270C00E000031CE1036108803AFF0080307F0287
:10271C00031D922B1A306002031C952B962BD32B86
:10272C00831203135908580457045604031D9F2B96
:10273C00A12B0130A22B0030DE005E08E900003036
:10274C00D9000030D8000030D7000030D600670820
:10275C00DE005E08E800DB2B691CB52BB62BBF2B0B
:10276C006908DE0003105E0C0138DF005F08E90029
:10277C00C12B0310E90C561CC42BC52BC62BE91717
:10278C000130DE00590DD90CD80CD70CD60CDE0B51
:10279C00C82B0130DE005E08E807831203136708BC
:1027AC006802031CDA2BDB2BB22B661BDE2BDF2B18
:1027BC002A2C6808031DE32BE42BED2B0030D900E9
:1027CC000030D8000030D7000030D600582D5A0801
:1027DC00D6075B0803110318013E0319F62BD70724
:1027EC005C0803110318013E0319FD2BD8075D0883
:1027FC0003110318013E0319042CD907591C072C8B
:10280C00082CDE2C691C0B2C0C2C152C6908DE00FA
:10281C0003105E0C0138DF005F08E900172C031071
:10282C00E90C561C1A2C1B2C1C2CE9170130DE0051
:10283C00590DD90CD80CD70CD60CDE0B1E2C013034
:10284C00DE005E08E807DE2C5908803AFF005D08C0
:10285C00803A7F02031D3C2C5C085802031D3C2C63
:10286C005B085702031D3C2C5A08560203183F2CD8
:10287C00402C982CFF30DE00FF30DF00FF30E000F2
:10288C00FF30E1005A08E2005B08E3005C08E4005A
:10289C005D08E5005608E2025708031C570F572C39
:1028AC00582CE3025808031C580F5D2C5E2CE402D4
:1028BC005908031C590F632C642CE5026208DE07CF
:1028CC0063080318630F6B2C6C2CDF076408031868
:1028DC00640F712C722CE00765080318650AE10778
:1028EC006108D9006008D8005F08D7005E08D600E0
:1028FC008030DE005E08E606E909E90A6908031D76
:10290C00882C892CA62C0130D607003003180130F6
:10291C00D707003003180130D807003003180130F6
:10292C00D907A62C5A08D6025B08031C5B0FD702EA
:10293C005C08031C5C0FD8025D08031C5D0FD902F8
:10294C005908580457045604031DAD2CAE2CDA2C30
:10295C006908031DB22CB32CDA2C0030D9000030DE
:10296C00D8000030D7000030D600582D0130DE00E2
:10297C000310D60DD70DD80DD90DDE0BBE2CE91FCB
:10298C00C82CC92CCA2C5614691CCD2CCE2CD12C7D
:10299C000314E90DD32C0310E90D68080319D72C87
:1029AC00D82CDA2C0130E802D81FDD2CDE2CBC2C04
:1029BC00E701E91FE22CE32CF12C69087F3903199C
:1029CC00E82CE92CEC2CE701E70AF12C561CEF2C37
:1029DC00F02CF12CE92C67080319F52CF62C2A2D78
:1029EC000130D607003003180130D7070030031828
:1029FC000130D807003003180130D907591C072DB6
:102A0C00082D2A2D5608DE005708DF005808E00074
:102A1C005908E1000130E200610DE10CE00CDF0C23
:102A2C00DE0CE20B122D6108D9006008D8005F089B
:102A3C00D7005E08D600680A0319252D262D2A2DED
:102A4C000130DE005E08E807680A03192E2D2F2DD1
:102A5C00342D6808031D332D342D422D0030D90040
:102A6C000030D8000030D7000030D6006808031DB5
:102A7C00402D412D422DE601681C452D462D482D3B
:102A8C00D8174C2D7F30DE005E08D8056808DE00B4
:102A9C0003105E0CDF005F08D900E61F562D572D82
:102AAC00582DD91708000A168A1578220A168A1189
:102ABC000A168A1537220A168A110A168A156021F7
:102ACC000A168A112B30831203136F06031D6F2D08
:102ADC00702DB12D3F30D9008030D8000030D70098
:102AEC000030D600831603134F0883120313DD0046
:102AFC00831603134E0883120313DC00831603138F
:102B0C004D0883120313DB00831603134C08831246
:102B1C000313DA000A168A11D1220A168A118312BB
:102B2C000313590883160313CF0083120313580899
:102B3C0083160313CE008312031357088316031353
:102B4C00CD0083120313560883160313CC00831293
:102B5C000313EF01D92D2D306F06031DB62DB72DA4
:102B6C00D92D3F3083160313A3008030A200003010
:102B7C00A1000030A0004F08A7004E08A6004D0889
:102B8C00A5004C08A4000A168A1597230A168A1168
:102B9C00831603132308CF002208CE002108CD0092
:102BAC002008CC00AD2D9F18DC2DDD2D182E1F0C10
:102BBC0083160313C800480C0F39053A031DE72D83
:102BCC00E82DFA2D831203131F08C33918389F0000
:102BDC0000300A168A153B210A168A118316031334
:102BEC00C8004808D9000B2E831203131F08C339E1
:102BFC0014389F0000300A168A153B210A168A11D8
:102C0C0083160313C8004808D800823083160313B8
:102C1C00C900DD30C800C80B112EC90B112E831250
:102C2C0003139F14F701F70A01300A168A15C52100
:102C3C000A168A11B430F6008030F7000A168A158D
:102C4C00BB220A168A113C3083120313AB00A0304E
:102C5C00AA009030A9002E30A8008316031359083F
:102C6C00C800C901CA01CB014B08F6004A08F5009F
:102C7C004908F4004808F30001300A168A15872623
:102C8C000A168A11760883120313AF007508AE007A
:102C9C007408AD007308AC000A128A153C210A16A0
:102CAC008A11831203132B0883160313D700831284
:102CBC0003132A0883160313D6008312031329085F
:102CCC0083160313D50083120313280883160313EA
:102CDC00D400F701F70A02300A168A15C5210A1624
:102CEC008A11E63083160313C800480883120313B5
:102CFC00EA0083160313570883120313EE0083169E
:102D0C000313560883120313ED008316031355089F
:102D1C0083120313EC00831603135408831203135A
:102D2C00EB0090300A128A1128200A168A11903072
:102D3C00F6000130F7000A168A15BB220A168A1112
:102D4C003C3083120313AB00A030AA009030A900D2
:102D5C002E30A800831603135808C800C901CA01F5
:102D6C00CB014B08F6004A08F5004908F400480866
:102D7C00F30001300A168A1587260A168A1176087E
:102D8C0083120313AF007508AE007408AD0073080E
:102D9C00AC000A128A153C210A168A1183120313FD
:102DAC002B0883160313D300831203132A088316EC
:102DBC000313D20083120313290883160313D100C3
:102DCC0083120313280883160313D0000730C8009E
:102DDC004808F70002300A168A15C5210A168A110E
:102DEC00E63083160313C800480883120313EA0065
:102DFC0083160313530883120313EE008316031375
:102E0C00520883120313ED00831603135108831227
:102E1C000313EC0083160313500883120313EB0007
:102E2C0090300A128A1128200A168A119030F60066
:102E3C000130F7000A168A15BB220A168A11E030F7
:102E4C0083160313C800480883120313EA00831681
:102E5C0003134F0883120313EE00831603134E085B
:102E6C0083120313ED00831603134D08831203130F
:102E7C00EC00831603134C0883120313EB00903001
:102E8C000A128A1128200A168A119030F600013095
:102E9C00F7000A168A15BB220A168A11C43083164B
:102EAC000313C800480883120313EA0083160313A4
:102EBC00570883120313EE0083160313560883126C
:102ECC000313ED0083160313550883120313EC0050
:102EDC0083160313540883120313EB0090300A1269
:102EEC008A1128200A168A119030F4000130F5005E
:102EFC000A128A11B2270A168A11D03083160313CC
:102F0C00C800480883120313EA00831603135308FE
:102F1C0083120313EE008316031352088312031358
:102F2C00ED0083160313510883120313EC00831670
:102F3C000313500883120313EB0090300A128A110A
:102F4C0028200A168A119030F4000130F5000A127C
:102F5C008A11B2270A168A119130F4008030F500DC
:102F6C000A128A11B2270A168A11DC30831603134F
:102F7C00C800480883120313EA00831603134F0892
:102F8C0083120313EE00831603134E0883120313EC
:102F9C00ED00831603134D0883120313EC00831604
:102FAC0003134C0883120313EB0090300A128A119E
:102FBC0028200A168A119030F4000130F5000A120C
:102FCC008A11B2270A168A11063083160313CA0017
:102FDC001330C900AD30C800C80BF22FC90BF22F4B
:102FEC00CA0BF22F0C30831203139900682D0A12AE
:042FFC008A110C2802
:10327600831203131E08F3007308F4007408080091
:1032860064008001840A04060319003404064429F4
:10329600F300831203130C1E512952294C2973087B
:1032A60099000800760875047404730403195C29F0
:1032B6005D295F298030F606080000300A168A1557
:1032C60090210A168A1501300A168A1590210A16C7
:1032D6008A150800831203138C1E72297329772915
:1032E6001A08F0007008EF0072088A00710E830059
:1032F600FE0E7E0E0900F400F3013A307402031844
:10330600852986298E2930307402031C8B298C2945
:103316008E29F301F30A730C0800F60083120313D7
:10332600071076080A128A11F9270A168A158312D7
:10333600031387140B30F5006230F400F40BA12957
:10334600F50BA12900008312031387100800F5006E
:1033560083120313071475080A128A11F9270A162D
:103366008A158312031387141A30F400F40BB92953
:1033760000008312031387101A30F400F40BC129DE
:1033860000000800F9007903031DCA29CB29D729B3
:1033960077087F3EF8007808FA007A080A168A1538
:1033A60090210A168A15E82902307906031DDC29C0
:1033B600DD29E8297708BF3EF8007808FA007A0880
:1033C6000A168A1590210A168A150800F701F801CF
:1033D600731CEE29EF29F5297508F7070318F80A73
:1033E6007608F80701300310F50DF60DFF3E031DB4
:1033F600F62901300310F40CF30CFF3E031DFD29E2
:1034060073087404031D082A092AEB297808F400B6
:103416007708F300080083120313A400A001A1019A
:103426007308F500F6017508A2007608A300241CAF
:103436001D2A1E2A242A2208A0070318A10A2308E7
:10344600A10701300310A20DA30DFF3E031D252A7F
:103456000310A40C2408031D312A322A1A2A210833
:10346600F4002008F300080000300A128A11F92738
:103476000A168A153430F800F130F700F70B412AA6
:10348600F80B412A462A3F300A168A1590210A1659
:103496008A151A30F800F830F700F70B502AF80BA7
:1034A600502A00003F300A168A1590210A168A15FE
:1034B6008530F700F70B5D2A3F300A168A159021F2
:1034C6000A168A1538300A168A1590210A168A15A0
:1034D6000C300A168A1590210A168A1506300A1625
:1034E6008A1590210A168A1508006030831603177C
:1034F60088008901073083160313890085010710A8
:10350600871087179F131F129F12831203131F081A
:103516003F3940389F001F08C33914389F00423096
:10352600F300F30B942A0000831203131F083F399C
:1035360040389F001F1483160313181218118316A0
:103546000317871533308316031399009A018312E4
:1035560003139817181318168316031398168B1748
:103566000B17831203138C12831603138C16080091
:1035760083120313A001A101E42A20087607F900AB
:103586007708F8000318F80AA01FCA2AF803780873
:10359600FA007A0883120313FF00790884000A12DE
:1035A6008A1500200A168A150A168A15AA210A16ED
:1035B6008A15013083120313A0070318A10A0030ED
:1035C600A10720087607F9007708F8000318F80A1B
:1035D600A01FEE2AF8037808FA007A08831203136C
:1035E600FF00790884000A128A1500200A168A1537
:1035F600003A031DFF2A002BC02A0800831203137A
:10360600A401A5012008210403190A2B0B2B422B28
:10361600A601A60A192B01300310A00DA10DFF3E2D
:10362600031D0F2B0130F9007908A607A11F1C2BDB
:103636001D2B0E2B01300310A40DA50DFF3E031DFF
:103646001E2B21082302031D2A2B20082202031CFD
:103656002D2B2E2B352B2008A2022108031CA30399
:10366600A302241401300310A10CA00CFF3E031D7D
:10367600362B0130A602031D412B422B1D2B25089C
:10368600A1002408A000080000307305831203136C
:10369600A00000307405A10080307505A2007F30BF
:1036A6007605A3002308220421042004031D5C2BB5
:1036B6005D2B652B0030F6000030F5000030F4007D
:1036C6000030F30000307705A00000307805A10037
:1036D60080307905A2007F307A05A30023082204F2
:1036E60021042004031D782B792B812B0030FA004E
:1036F6000030F9000030F8000030F7007A0876064E
:10370600031D8F2B79087506031D8F2B7808740609
:10371600031D8F2B770873060319922B932B952B7A
:103726000310962B03140800803083160313A30698
:10373600270883120313D90083160313260883125E
:103746000313D80083160313250883120313D70027
:1037560083160313240883120313D6008316031358
:10376600230883120313DD00831603132208831232
:103776000313DC0083160313210883120313DB00F3
:1037860083160313200883120313DA000A168A111C
:10379600D1220A168A1583120313590883160313B6
:1037A600A30083120313580883160313A20083127F
:1037B6000313570883160313A10083120313560835
:1037C60083160313A00008007608750474047304B6
:1037D6000319EE2BEF2B342C83120313A101A10A3C
:1037E600012C0130A0000310F30DF40DF50DF60DBC
:1037F600A00BF62B0130A0002008A107F61F042C11
:10380600052CF42B76087A02031D132C7508790211
:10381600031D132C74087802031D132C73087702FA
:10382600031C162C172C252C7308F7027408031C8E
:10383600740FF8027508031C750FF9027608031C4D
:10384600760FFA0201300310F60CF50CF40CF30CAB
:10385600FF3E031D262C0130A102031D332C342C00
:10386600052C7A08F6007908F5007808F400770840
:10387600F3000800F901F61F412C422C492CF509EA
:10388600F609F50A0319F60AF901F90AF41F4C2C90
:103896004D2C522CF309F409F30A0319F40A7308A0
:1038A60074040319572C582C872CF801F80A662C37
:1038B60001300310F30DF40DFF3E031D5C2C0130A7
:1038C600F7007708F807F41F692C6A2C5B2C74083C
:1038D6007602031D702C73087502031C732C742C5E
:1038E6007A2C7308F5027408031CF603F6020130FD
:1038F6000310F40CF30CFF3E031D7B2C0130F80281
:10390600031D862C872C6A2C790803198B2C8C2C8A
:10391600912CF509F609F50A0319F60A7608F4005A
:103926007508F3000800003083120313A40000306A
:10393600A3000030A2000030A100760875047404CC
:1039460073040319A72CA82CF52CA501A50AB82CDD
:103956000130A0000310F30DF40DF50DF60DA00BCC
:10396600AD2C0130A0002008A507F61FBB2CBC2CEF
:10397600AB2C0130A0000310A10DA20DA30DA40DC8
:10398600A00BBE2C76087A02031DD32C750879028B
:10399600031DD32C74087802031DD32C73087702F9
:1039A600031CD62CD72CE62C7308F7027408031CCC
:1039B600740FF8027508031C750FF9027608031CCC
:1039C600760FFA02211401300310F60CF50CF40CF4
:1039D600F30CFF3E031DE72C0130A502031DF42C5A
:1039E600F52CBC2C2408F6002308F5002208F40068
:1039F6002108F300080083120313A501A11F042D5B
:103A0600052D0C2DA009A109A00A0319A10AA501DB
:103A1600A50AA31F0F2D102D192DA209A309A20A6D
:103A26000319A30A0130FA007A08A506A601A70120
:103A3600200821040319202D212D582DA401A40AA4
:103A46002F2D01300310A00DA10DFF3E031D252DC6
:103A56000130FA007A08A407A11F322D332D242D38
:103A660001300310A60DA70DFF3E031D342D2108BE
:103A76002302031D402D20082202031C432D442D42
:103A86004B2D2008A2022108031CA303A30226141F
:103A960001300310A10CA00CFF3E031D4C2D01307C
:103AA600A402031D572D582D332D250803195C2D0F
:103AB6005D2D622DA609A709A60A0319A70A2708DC
:103AC600A1002608A0000800031083120313570D57
:103AD600580DD9005908DF005F08031D732D742D9A
:103AE6007D2D0030D8000030D7000030D6000030E1
:103AF600D500E22D5508D9005608DA005708DB0034
:103B06005808DC001F300310DC0CDB0CDA0CD90C77
:103B1600FF3E031D862D5908DD005D08DE00D71720
:103B2600FF30D505FF30D605FF30D7050030D80564
:103B36009630DF02DF1FA02DA12DBB2D5F08803A36
:103B4600973E0318A72DA82DA92D742D013003101B
:103B5600D80CD70CD60CD50CFF3E031DAA2D013070
:103B6600D9005908DF07031DB92DBA2DA92DD22D6D
:103B760020305F02031CC02DC12DCD2D742D0130C8
:103B8600D9000310D50DD60DD70DD80DD90BC42DE0
:103B96000130DF025F08031DD12DD22DC22D5E0834
:103BA6000319D62DD72DE22DD509D609D709D8095F
:103BB600D50A0319D60A0319D70A0319D80A080021
:103BC6000030730583120313A00000307405A100B2
:103BD60080307505A2007F307605A30023082204F5
:103BE60021042004031DF82DF92D012E0030F600C6
:103BF6000030F5000030F4000030F30000307705A7
:103C0600A00000307805A10080307905A2007F3041
:103C16007A05A3002308220421042004031D142E80
:103C2600152E1D2E0030FA000030F9000030F80085
:103C36000030F700F61F202E212E452E0030A00062
:103C46000030A1000030A2008030A3007308A0025B
:103C56007408031C740F302E312EA1027508031C44
:103C6600750F362E372EA2027608031C760F3C2ED1
:103C76003D2EA3022308F6002208F5002108F400D1
:103C86002008F300FA1F482E492E6D2E0030A000A2
:103C96000030A1000030A2008030A3007708A00207
:103CA6007808031C780F582E592EA1027908031C98
:103CB600790F5E2E5F2EA2027A08031C7A0F642EFD
:103CC600652EA3022308FA002208F9002108F8004D
:103CD6002008F7008030F6068030FA067A08760269
:103CE600031D7F2E79087502031D7F2E7808740246
:103CF600031D7F2E770873020318822E832E852ECE
:103D06000310862E0314080083120313A000200854
:103D160003198E2E8F2EA32EF61F922E932EA32ED0
:103D26007309A2007409A3007509A4007609A50009
:103D3600A20A0319A30A0319A40A0319A50AAB2E9A
:103D46007608A5007508A4007408A3007308A200ED
:103D56007608750474047304031DB22EB32EBC2EAC
:103D66000030F6000030F5000030F4000030F300BB
:103D7600422F9630F7007708A100CE2E0130F700CB
:103D86007708A10701300310A50CA40CA30CA20C04
:103D9600FF3E031DC62EFE302505031DD32ED42E51
:103DA600C12EF02E0130F7007708A1070130A207D7
:103DB600003003180130A307003003180130A407B0
:103DC600003003180130A50701300310A50CA40C20
:103DD600A30CA20CFF3E031DE82EFF302505031D94
:103DE600F52EF62ED52E022F0130A1020130F70056
:103DF6000310A20DA30DA40DA50DF70BFB2EA41BFE
:103E0600052F062F0C2F0230210203180B2F0C2F23
:103E1600F72E21180F2F102F182FFF30A205FF3075
:103E2600A3057F30A405FF30A5050310A10C2108CA
:103E3600F700F801F901FA0118300310F70DF80D33
:103E4600F90DFA0DFF3E031D202F7708A20478080E
:103E5600A3047908A4047A08A50420080319342FBA
:103E6600352F3A2FF61F382F392F3A2FA517250849
:103E7600F6002408F5002308F4002208F3000800E1
:103E8600730883120313A0007408A1007508A2002A
:103E96000310210D220DA3002308A9002908031DE4
:103EA600552F562F5F2F0030F6000030F5000030FA
:103EB600F4000030F300FF2F7708A0007808A10077
:103EC6007908A2000310210D220DA3002308A800E3
:103ED6002808031D6F2F702F712F562FF417FF30F0
:103EE600F305FF30F4050030F505F817FF30F70548
:103EF600FF30F8050030F9050030A7000030A600B5
:103F06000030A5000030A4007F30A90298302807B1
:103F1600A0002008A9021830A0002008A80001303F
:103F2600A0000310A40DA50DA60DA70DA00B942FA0
:103F360079087502031DA52F78087402031DA52FA5
:103F460077087302031CA82FA92FB42F7708F30252
:103F56007808031C780FF4027908031C790AF50225
:103F6600241401300310F30DF40DF50DFF3E031D6F
:103F7600B52F0130A802031DC12FC22F922FA91FF2
:103F8600C52FC62FE02F2908803A973E0318CC2F5D
:103F9600CD2FCE2F562F01300310A70CA60CA50C43
:103FA600A40CFF3E031DCF2F0130A0002008A90757
:103FB600031DDE2FDF2FCE2FF72F18302902031C0B
:103FC600E52FE62FF22F562F0130A0000310A40D87
:103FD600A50DA60DA70DA00BE92F0130A9022908F2
:103FE600031DF62FF72FE72F2708F6002608F50002
:0A3FF6002508F4002408F300080079
:04400E00D430FF3F6C
:00000001FF
