:060000000A128A11E62F2E
:10000A000030FC000030FB000030FA000030F9003C
:10001A0073087204710470040319142815286228DD
:10002A00FD01FD0A25280130F8000310F00DF10D3D
:10003A00F20DF30DF80B1A280130F8007808FD07C5
:10004A00F31F2828292818280130F8000310F90D71
:10005A00FA0DFB0DFC0DF80B2B2873087702031D14
:10006A00402872087602031D402871087502031D94
:10007A00402870087402031C432844285328700837
:10008A00F4027108031C710FF5027208031C720F47
:10009A00F6027308031C730FF70279140130031078
:1000AA00F30CF20CF10CF00CFF3E031D5428013046
:1000BA00FD02031D6128622829287C08F3007B08B9
:1000CA00F2007A08F1007908F00008008316031399
:1000DA00C100A130A5002508AE00CF2F2530440667
:1000EA0003197828792885284408A500410884003E
:1000FA002508831780000130A5002508C107CF2FE6
:10010A00B501B601B301B401200884000A128A15A8
:10011A000A200A128A110A168A1588220A128A11D4
:10012A00031C98289928D92883160313B501B60108
:10013A000A30F0000030F100831603133608F3008A
:10014A003508F2000A168A1537230A128A1171082D
:10015A0083160313B6007008B500200884000A123B
:10016A008A150A200A128A11D03EA500FF30031808
:10017A000030A6002508B5070318B60A2608B607F0
:10018A000130A5002508A007200884000A128A1554
:10019A000A200A128A110A168A1588220A128A1154
:1001AA000318D828D9289D28831603132008840009
:1001BA000A128A150A200A128A112E3A031DE62803
:1001CA00E7282C2934170130A5002508A007C20109
:1001DA00C3011B290A30F0000030F1008316031313
:1001EA004308F3004208F2000A168A1537230A1256
:1001FA008A11710883160313C3007008C20020080D
:10020A0084000A128A150A200A128A11D03EA50011
:10021A00FF3003180030A6002508C2070318C30AD6
:10022A002608C3070130A5002508A0072008840076
:10023A000A128A150A200A128A110A168A158822AF
:10024A000A128A1103182A292B29EF283229C201F6
:10025A00C3013416322934154E290130831603138B
:10026A00A007FF30200784000A128A150A200A1202
:10027A008A11C400A500A6012608003A03194629D6
:10028A00CF2F2508003A0319E12F663A03193029BE
:10029A00CF2F00303305A50007303405A600250806
:1002AA002604031959295A290C2F341E5D295E295F
:1002BA0062290630C2000030C3002E08840083136E
:1002CA000008BD00840A0008BE00840A0008BF00B6
:1002DA00840A0008C0000430A5002508AE074008BB
:1002EA00F3003F08F2003E08F1003D08F00000303C
:1002FA00F7000030F6000030F5000030F4000A166E
:10030A008A15E5250A128A1103188C298D29AA292A
:10031A00831603134008F3003F08F2003E08F10079
:10032A003D08F0000A168A157D220A128A117308FE
:10033A0083160313C0007208BF007108BE0070085C
:10034A00BD000330B3040030B40483160313BB01A9
:10035A00BC014008F3003F08F2003E08F1003D08E6
:10036A00F0000030F7000030F6000030F5000030F1
:10037A00F4000A168A15EA240A128A110318C629F1
:10038A00C729B72A0310831603133F0D400D823E77
:10039A00BB00FF3003180030BC00FF30BB07031856
:1003AA00BC0AFF30BC070330F0000030F1003C0803
:1003BA00F3003B08F2000A168A1537230A128A113B
:1003CA00710883160313BC007008BB000A30F700DB
:1003DA000030F8003C08FA003B08F9000A128A15B6
:1003EA00D7200A128A11780883160313BC007708EB
:1003FA00BB00BC1F012A022A082AFF30BB070318C8
:10040A00BC0AFF30BC073B03FF3A0A128A15402197
:10041A000A128A1183120313410883160313BA00BE
:10042A0083120313400883160313B90083120313BC
:10043A003F0883160313B800831203133E0883167A
:10044A000313B700400883120313A700831603138C
:10045A003F0883120313A600831603133E08831270
:10046A000313A500831603133D0883120313A40084
:10047A00831603133A0883120313AB00831603137C
:10048A00390883120313AA00831603133808831248
:10049A000313A90083160313370883120313A80052
:1004AA000A128A159F240A128A1183120313270833
:1004BA0083160313BA008312031326088316031341
:1004CA00B90083120313250883160313B800831295
:1004DA000313240883160313B7003A08F3003908F4
:1004EA00F2003808F1003708F0003F30F70080309A
:1004FA00F6000030F5000030F4000A168A15E525EA
:10050A000A128A1103188A2A8B2A942AFF30831620
:10051A000313BB070318BC0AFF30BC07B72A8316AC
:10052A0003133A08F3003908F2003808F1003708D3
:10053A00F0004130F7002030F6000030F5000030BE
:10054A00F4000A168A15E5250A128A11031CAE2A36
:10055A00AF2AB72A013083160313BB070318BC0A54
:10056A000030BC07831603134308803AFF0080302B
:10057A007F02031DC22A0D3042020318C52AC62A69
:10058A000D2B8316031342080A168A1147210A12F1
:10059A008A11831203134108D5004008D4003F088A
:1005AA00D3003E08D20083160313400883120313B4
:1005BA00D900831603133F0883120313D800831646
:1005CA0003133E0883120313D700831603133D084F
:1005DA0083120313D6000A168A1178250A128A1181
:1005EA0083120313550883160313C00083120313DF
:1005FA00540883160313BF00831203135308831688
:10060A000313BE0083120313520883160313BD009B
:10061A00831603133C08803AFF0080307F02031DD3
:10062A00182B0A303B0203181B2B1C2B6D2B83162D
:10063A0003134008F3003F08F2003E08F1003D08AA
:10064A00F0000030F7000030F6000030F50000300E
:10065A00F4000A168A15EA240A128A110318362B9C
:10066A00372BDF2B83160313400883120313D4009E
:10067A00831603133F0883120313D300831603134D
:10068A003E0883120313D200831603133D08831214
:10069A000313D1000A168A110D200A128A11831235
:1006AA0003135408530452045104031D5D2B5E2B9B
:1006BA00DF2B831603133C08803AFF0080307F0249
:1006CA00031D692B02303B02031C6C2B6D2BDF2BA5
:1006DA00831603133A08F3003908F2003808F100C8
:1006EA003708F0004030F7008930F6007030F50026
:1006FA005F30F4000A168A15E5250A128A110318D2
:10070A00872B882B912BF73083160313BB0703180B
:10071A00BC0AFF30BC07992BF83083160313BB07BA
:10072A000318BC0AFF30BC073B080A128A1540218D
:10073A000A128A1183120313410883160313BA009B
:10074A0083120313400883160313B9008312031399
:10075A003F0883160313B800831203133E08831657
:10076A000313B7004008F3003F08F2003E08F10007
:10077A003D08F0003A08F7003908F6003808F50095
:10078A003708F4000A168A1189200A128A11730896
:10079A0083160313B2007208B1007108B000700822
:1007AA00AF000030C0000030BF000030BE00003093
:1007BA00BD00632C83160313400883120313D4006D
:1007CA00831603133F0883120313D30083160313FC
:1007DA003E0883120313D200831603133D088312C3
:1007EA000313D1000A168A110D200A128A118312E4
:1007FA000313540883160313B20083120313530816
:10080A0083160313B10083120313520883160313CA
:10081A00B00083120313510883160313AF00320882
:10082A00F9003108F8003008F7002F08F600003008
:10083A000A168A1587260A128A117908831203135F
:10084A00E9007808E8007708E7007608E6008316EA
:10085A000313400883120313ED00831603133F08A2
:10086A0083120313EC00831603133E088312031347
:10087A00EB00831603133D0883120313EA000A16DA
:10088A008A1513230A128A1183120313690883161D
:10089A000313C00083120313680883160313BF00EF
:1008AA0083120313670883160313BE00831203130C
:1008BA00660883160313BD00BB01BC01C401C40A48
:1008CA004408A50001300310A50DFF3E031D682C46
:1008DA000310250D693E84000A128A150A200A129D
:1008EA008A11A6000A128A150A200A128A11A7007A
:1008FA000A128A150A200A128A11A8000A128A15EF
:10090A000A200A128A11A90029083202031D972C0B
:10091A0028083102031D972C27083002031D972C43
:10092A0026082F0203189A2C9B2C9C2CA62C0130EB
:10093A00A5002508C4070A304406031DA52CA62CC9
:10094A00652C44084207A50043080318430AA60079
:10095A003B082507A7003C0803183C0A2607A800FD
:10096A002708B5022808031CB603B6024208430446
:10097A000319C02CC12CC72CFF30B5070318B60ABF
:10098A00FF30B60703303305A50000303405A60052
:10099A00250826040319D22CD32CE82CFF30B507DE
:1009AA000318B60AFF30B607E82C20308316031363
:1009BA00A500410884002508831780000130A5009E
:1009CA002508C107D32C3608803AFF0080307F0201
:1009DA00031DF12C013035020318F42CF52CDA2C06
:1009EA000330831603133305A50000303405A6002F
:1009FA00250826040319022D032D752D2D30A50077
:100A0A00410884002508831780000130A5002508C5
:100A1A00C107752D4408A50001300310A50DFF3E3E
:100A2A00031D122D0310250D693E84000A128A1532
:100A3A000A200A128A11F0000A128A150A200A12DA
:100A4A008A11F1000A128A150A200A128A11F20082
:100A5A000A128A150A200A128A11F3003208F700CC
:100A6A003108F6003008F5002F08F4000A128A113E
:100A7A0005200A128A11730883160313BA00720832
:100A8A00B9007108B8007008B7000030F3000030F0
:100A9A00F2000030F1000A30F0003A08F700390895
:100AAA00F6003808F5003708F4000A168A153825C2
:100ABA000A128A11730883160313BA007208B9005E
:100ACA007108B8007008B7003708303EA500410821
:100ADA0084002508831780000130A5002508C10776
:100AEA000130C402440A031D7B2D7C2D0F2D902D4D
:100AFA00303083160313A5004108840025088317A4
:100B0A0080000130A5002508C107FF30BB07031884
:100B1A00BC0AFF30BC073C08803AFF0080307F02E5
:100B2A00031D992D01303B0203189C2D9D2D7D2D0F
:100B3A00831603134308803AFF0080307F02031DA7
:100B4A00A82D09304202031CAB2DAC2DB32D083061
:100B5A0083160313A5002508C400B92D83160313B1
:100B6A004208A5002508C4004408A500A6012508D6
:100B7A00C2022608031CC303C30244080319C62D74
:100B8A00C72DD22D2E30A5004108840025088317D1
:100B9A0080000130A5002508C10744080A128A15F9
:100BAA0040210A128A118312031341088316031380
:100BBA00AD0083120313400883160313AC0083129B
:100BCA0003133F0883160313AB00831203133E0873
:100BDA0083160313AA002D0883120313AB0083168E
:100BEA0003132C0883120313AA00831603132B087A
:100BFA0083120313A900831603132A08831203130B
:100C0A00A80083160313400883120313A700831650
:100C1A0003133F0883120313A600831603133E0827
:100C2A0083120313A500831603133D0883120313CB
:100C3A00A4000A128A159F240A128A118312031326
:100C4A002708D4002608D3002508D2002408D1009A
:100C5A000A168A110D200A128A11831203135408E4
:100C6A0083160313B2008312031353088316031364
:100C7A00B10083120313520883160313B0008312C0
:100C8A000313510883160313AF00EC2E4408A50082
:100C9A0001300310A50DFF3E031D4E2E0310250D36
:100CAA00693E84000A128A150A200A128A11F00083
:100CBA000A128A150A200A128A11F1000A128A15E2
:100CCA000A200A128A11F2000A128A150A200A1246
:100CDA008A11F3003208F7003108F6003008F500EF
:100CEA002F08F4000A128A1105200A128A117308C1
:100CFA0083160313BA007208B9007108B8007008A5
:100D0A00B7000030F3000030F2000030F1000A3082
:100D1A00F0003A08F7003908F6003808F5003708F5
:100D2A00F4000A168A1538250A128A1173088316DE
:100D3A000313BA007208B9007108B8007008B70046
:100D4A003708303EA5004108840025088317800033
:100D5A000130A5002508C1074408A5000130031089
:100D6A00A50DFF3E031DB42E0310250D693E840018
:100D7A000A128A150A200A128A11F0000A128A1522
:100D8A000A200A128A11F1000A128A150A200A1286
:100D9A008A11F2000A128A150A200A128A11F3002D
:100DAA003208F7003108F6003008F5002F08F40081
:100DBA000A168A1538250A128A117308831603132C
:100DCA00B2007208B1007108B0007008AF000130BB
:100DDA00C402440A031DF22EF32E4B2E052F303087
:100DEA00A500410884002508831780000130A5006A
:100DFA002508C107FF30C2070318C30AFF30C3071B
:100E0A0042084304031D0A2F0B2FF42ECF2F42084A
:100E1A004304031D112F122F202F320831043004EE
:100E2A002F04031D192F1A2F202F0130C207031870
:100E3A00C30A0030C3074308803A803C031D272FAA
:100E4A004208440203182A2F2B2F322F831603132A
:100E5A004208A5002508C4004A2F83160313430835
:100E6A00803AA50080302502031D3D2F4408420226
:100E7A000318402F412F4A2F831603134408A50055
:100E8A00A6012508C2002608C300831603133508E5
:100E9A0036040319512F522F642F03303305A5004E
:100EAA0000303405A6002508260403195D2F5E2F9D
:100EBA00642FFF30B5070318B60AFF30B607341F90
:100ECA00672F682F832F4308803AA5003608803A97
:100EDA002502031D722F350842020318752F762F3B
:100EEA007F2F831603134208B5024308031CB60377
:100EFA00B602832F83160313B501B6013608803A6A
:100F0A00803C031D8A2F3508440203188D2F8E2F2B
:100F1A009A2F831603134408A500A6012508B502D3
:100F2A002608031CB603B6029E2F83160313B501C7
:100F3A00B601350836040319A32FA42FBB2F20307E
:100F4A00A500410884002508831780000130A50008
:100F5A002508C107FF30B5070318B60AFF30B607E0
:100F6A0035083604031DBA2FBB2FA42F03303305CF
:100F7A00A50000303405A600250826040319C62F4B
:100F8A00C72FCF2F2D30A5004108840025088317CD
:100F9A00800080280130A007FF30200784000A1251
:100FAA008A150A200A128A11A5002508C4004408D5
:100FBA00031DE02FE12F7328410884008317800165
:100FCA00080083120313EE01EF018313C930840072
:100FDA00D7300A168A1559220A128A1183179030B5
:100FEA008400AE300A168A1559220A128A11830120
:100FFA000A168A11522BFF1B0A2883137F1883179C
:10100A000008840A0319FF0A080008308A00040845
:10101A00840A820700340034003480343F340034B8
:10102A0000342034413400340034C83442340034AB
:10103A0000347A344434003440341C3446340034A6
:10104A005034C3344734003424347434493480343B
:10105A00963418344B342034BC34BE344C342834DF
:10106A006B346E344E34F934023415345034EC3463
:10107A007834AD346034CA34F234493471340034CB
:10108A00003480343F34CD34CC34CC343D340A344B
:10109A00D73423343C346F34123483343A3417341B
:1010AA00B734D1343834AC34C53427343734BD344A
:1010BA003734863435349534BF34D63433347734C0
:1010CA00CC342B3432345F34703489343034FF34C6
:1010DA00E634DB342E340834E5343C341E346034D0
:1010EA004234A2340D3401340034003400340A345A
:1010FA000034003400346434003400340034E834FA
:10110A000334003400341034273400340034A0345B
:10111A00863401340034403442340F34003480348D
:10112A009634983400340034E134F534053400340C
:10113A00CA349A343B344134443443343A34203444
:10114A00203443344F344E3454343A342034203427
:10115A00543445344D3450343A340034253433341D
:10116A002E343134663443340034253433342E3447
:10117A003034663455340034253433342E34323422
:06118A0066345634003407
:1011940000300A168A159A220A128A1501300A1694
:1011A4008A159A220A128A15080083120313A101D0
:1011B400F81FDD28DE28E528F709F809F70A0319DE
:1011C400F80AA101A10AFA1FE828E928F228F90976
:1011D400FA09F90A0319FA0A0130FB007B08A1068F
:1011E400A201A301770878040319F928FA28312900
:1011F400A001A00A082901300310F70DF80DFF3EE5
:10120400031DFE280130FB007B08A007F81F0B29F3
:101214000C29FD2801300310A20DA30DFF3E031D70
:101224000D2978087A02031D192977087902031C0D
:101234001C291D2924297708F9027808031CFA03BC
:10124400FA02221401300310F80CF70CFF3E031DC0
:1012540025290130A002031D302931290C29210838
:101264000319352936293B29A209A309A20A03191E
:10127400A30A2308F8002208F700080083120313C6
:10128400D000D01F46294729F42AD009D00A500893
:10129400803A123E031C4F295029382A0A30F7009D
:1012A4000030F8005008F200F301F21BF30364303D
:1012B400F0000030F1000A168A158C250A128A15EE
:1012C4007108FA007008F9000A128A15D7200A1268
:1012D4008A15770883120313C20001300310C20D6C
:1012E400FF3E031D70290310420D593E84000A126B
:1012F4008A150A200A128A15C3000A128A150A20BE
:101304000A128A15C4000A128A150A200A128A15BA
:10131400C5000A128A150A200A128A15C600460850
:10132400A7004508A6004408A5004308A4006430AB
:10133400F7000030F8005008F900FA01F91BFA032D
:101344000A128A15D7200A128A1577088312031302
:10135400C70001300310C70DFF3E031DAC29031065
:10136400470D7D3E84000A128A150A200A128A1546
:10137400C8000A128A150A200A128A15C9000A121C
:101384008A150A200A128A15CA000A128A150A2026
:101394000A128A15CB004B08AB004A08AA00490878
:1013A400A9004808A8000A128A159F240A128A155F
:1013B400831203132708CF002608CE002508CD008A
:1013C4002408CC000A30F0000030F1005008F2008C
:1013D400F301F21BF3030A168A158C250A128A15E7
:1013E400700883120313C20001300310C20DFF3EC4
:1013F400031DF7290310420D353E84000A128A1595
:101404000A200A128A15C3000A128A150A200A122F
:101414008A15C4000A128A150A200A128A15C50000
:101424000A128A150A200A128A15C6004608A7005D
:101434004508A6004408A5004308A4004F08AB00D3
:101444004E08AA004D08A9004C08A8000A128A15E3
:101454009F240A128A15831203132708C100260841
:10146400C0002508BF002408BE009E2C5008803A06
:10147400753E031C3E2A3F2AC72A0A30F00000307A
:10148400F1005008F200F301F21BF3030A168A1567
:101494008C250A128A15700883120313C2000130C6
:1014A4000310C20DFF3E031D522A0310420D353EA8
:1014B40084000A128A150A200A128A15C3000A1225
:1014C4008A150A200A128A15C4000A128A150A20EB
:1014D4000A128A15C5000A128A150A200A128A15E8
:1014E400C6004608A7004508A6004408A50043080E
:1014F400A4000A30F7000030F8005008F900FA019F
:10150400F91BFA030A128A15D7200A128A157708DA
:1015140083120313C70001300310C70DFF3E031DE0
:101524008E2A0310470D593E84000A128A150A2098
:101534000A128A15C8000A128A150A200A128A1584
:10154400C9000A128A150A200A128A15CA000A1248
:101554008A150A200A128A15CB004B08AB004A08E8
:10156400AA004908A9004808A8000A128A159F245D
:101574000A128A15831203132708C1002608C00023
:101584002508BF002408BE009E2C5008C20001306C
:101594000310C20DFF3E031DCA2A0310420D353E3F
:1015A40084000A128A150A200A128A15C3000A1234
:1015B4008A150A200A128A15C4000A128A150A20FA
:1015C4000A128A15C5000A128A150A200A128A15F7
:1015D400C6004608C1004508C0004408BF004308CF
:1015E400BE009E2C5008803A123E031CFA2AFB2AA5
:1015F400E32B0A30F7000030F8005008F200F30142
:10160400F21BF3036430F0000030F1000A168A156F
:101614008C250A128A157108FA007008F9000A125A
:101624008A15D7200A128A15770883120313C20079
:1016340001300310C20DFF3E031D1B2B0310420D8E
:10164400253E84000A128A150A200A128A15C3004C
:101654000A128A150A200A128A15C4000A128A1567
:101664000A200A128A15C5000A128A150A200A12CB
:101674008A15C6004608A7004508A6004408A50028
:101684004308A4006430F7000030F8005008F90063
:10169400FA01F91BFA030A128A15D7200A128A15CD
:1016A400770883120313C70001300310C70DFF3EF0
:1016B400031D572B0310470D493E84000A128A1557
:1016C4000A200A128A15C8000A128A150A200A1268
:1016D4008A15C9000A128A150A200A128A15CA0034
:1016E4000A128A150A200A128A15CB004B08AB008D
:1016F4004A08AA004908A9004808A8000A128A153D
:101704009F240A128A15831203132708CF00260880
:10171400CE002508CD002408CC000A30F0000030AB
:10172400F1005008F200F301F21BF3030A168A15C4
:101734008C250A128A15700883120313C200013023
:101744000310C20DFF3E031DA22B0310420D013EE8
:1017540084000A128A150A200A128A15C3000A1282
:101764008A150A200A128A15C4000A128A150A2048
:101774000A128A15C5000A128A150A200A128A1545
:10178400C6004608A7004508A6004408A50043086B
:10179400A4004F08AB004E08AA004D08A9004C084D
:1017A400A8000A128A159F240A128A1583120313A9
:1017B4002708C1002608C0002508BF002408BE0071
:1017C4009E2C5008803A753E031CE92BEA2B722CA0
:1017D4000A30F0000030F1005008F200F301F21B6F
:1017E400F3030A168A158C250A128A1570088312C7
:1017F4000313C20001300310C20DFF3E031DFD2B75
:101804000310420D013E84000A128A150A200A12AE
:101814008A15C3000A128A150A200A128A15C400FE
:101824000A128A150A200A128A15C5000A128A1594
:101834000A200A128A15C6004608A7004508A60011
:101844004408A5004308A4000A30F7000030F8005B
:101854005008F900FA01F91BFA030A128A15D72075
:101864000A128A15770883120313C7000130031084
:10187400C70DFF3E031D392C0310470D253E840080
:101884000A128A150A200A128A15C8000A128A1531
:101894000A200A128A15C9000A128A150A200A1295
:1018A4008A15CA000A128A150A200A128A15CB0060
:1018B4004B08AB004A08AA004908A9004808A80038
:1018C4000A128A159F240A128A1583120313270801
:1018D400C1002608C0002508BF002408BE009E2CB5
:1018E4005008C20001300310C20DFF3E031D752CC9
:1018F4000310420D013E84000A128A150A200A12BE
:101904008A15C3000A128A150A200A128A15C4000D
:101914000A128A150A200A128A15C5000A128A15A3
:101924000A200A128A15C6004608C1004508C000EC
:101934004408BF004308BE000800831203132708AD
:101944008039AC002C08B1002708AC002C07AD008E
:101954002D08B700A61FAF2CB02CB12C37143708B4
:101964000319B52CB62CC52C370A031DBA2CBB2C75
:10197400C32C0030A7000030A6000030A5000030C2
:10198400A400A617CD2C0030A7000030A60000301C
:10199400A5000030A4002B088039AC002C08B10647
:1019A4002B08AC002C07AD002D08B600AA1FDB2CB9
:1019B400DC2CDD2C361436080319E12CE22CF12C36
:1019C400360A031DE62CE72CEF2C0030AB00003068
:1019D400AA000030A9000030A800AA17F92C003092
:1019E400AB000030AA000030A9000030A80036087F
:1019F4000319FD2CFE2C032D3708031D022D032D86
:101A04000C2D0030A7000030A6000030A5000030E7
:101A1400A400FF2F2408AC002C08F0002A080A16A2
:101A24008A155C230A128A15710883120313BD00F8
:101A34007008BC003C08AC00AD01AE01AF012F083A
:101A4400B5002E08B4002D08B3002C08B2003D08E0
:101A5400AC00AD01AE01AF012F08BB002E08BA00E7
:101A64002D08B9002C08B8002508AC002C08F0009B
:101A740029080A168A155C230A128A15710883122A
:101A84000313BD007008BC003C08AC00AD01AE01FE
:101A9400AF012C08B2072D0803110318013E0319E6
:101AA400542DB3072E0803110318013E03195B2DAF
:101AB400B4072F0803110318013E0319622DB5075B
:101AC4003D08AC00AD01AE01AF012C08B8072D08EC
:101AD40003110318013E0319702DB9072E080311D1
:101AE4000318013E0319772DBA072F0803110318B1
:101AF400013E03197E2DBB072608AC002C08F0001C
:101B040028080A168A155C230A128A15710883129A
:101B14000313BD007008BC003C08AC00AD01AE016D
:101B2400AF012C08B2072D0803110318013E031955
:101B34009C2DB3072E0803110318013E0319A32D8E
:101B4400B4072F0803110318013E0319AA2DB50782
:101B54003D08AC00AD01AE01AF012C08B8072D085B
:101B640003110318013E0319B82DB9072E080311F8
:101B74000318013E0319BF2DBA072F0803110318D8
:101B8400013E0319C62DBB070830AC000310B20D8B
:101B9400B30DB40DB50DAC0BC82D2508AC002C0845
:101BA400F00028080A168A155C230A128A1571089F
:101BB40083120313BD007008BC003C08AC003D0850
:101BC400AD00AE01AF012C08B2072D0803110318B4
:101BD400013E0319EE2DB3072E0803110318013E2D
:101BE4000319F52DB4072F0803110318013E031937
:101BF400FC2DB5072408AC002C08F00029080A16AF
:101C04008A155C230A128A15710883120313BD0016
:101C14007008BC003C08AC003D08AD00AE01AF014B
:101C24002C08B2072D0803110318013E03191B2EBB
:101C3400B3072E0803110318013E0319222EB4071B
:101C44002F0803110318013E0319292EB507083084
:101C5400AC000310B20DB30DB40DB50DAC0B2B2EAF
:101C64002408AC002C08F00028080A168A155C2306
:101C74000A128A15710883120313BD007008BC0090
:101C84003C08AC003D08AD00AE01AF012C08B20722
:101C94002D0803110318013E0319512EB3072E0812
:101CA40003110318013E0319582EB4072F0803111A
:101CB4000318013E03195F2EB5072508AC002C0854
:101CC400F0002A080A168A155C230A128A1571087C
:101CD40083120313BD007008BC003C08AC003D082F
:101CE400AD00AE01AF012C08B8072D08031103188D
:101CF400013E03197E2EB9072E0803110318013E75
:101D04000319852EBA072F0803110318013E03197E
:101D14008C2EBB072608AC002C08F00029080A16F4
:101D24008A155C230A128A15710883120313BD00F5
:101D34007008BC003C08AC003D08AD00AE01AF012A
:101D44002C08B8072D0803110318013E0319AB2E04
:101D5400B9072E0803110318013E0319B22EBA075E
:101D64002F0803110318013E0319B92EBB072608D7
:101D7400AC002C08F0002A080A168A155C230A1203
:101D84008A15710883120313BD007008BC003C0857
:101D9400AC003D08AD00AE01AF0108300310AC0D3E
:101DA400AD0DAE0DAF0DFF3E031DD02E2C08B807B0
:101DB4002D0803110318013E0319E12EB9072E085B
:101DC40003110318013E0319E82EBA072F08031163
:101DD4000318013E0319EF2EBB073208AC00330889
:101DE400AD003408AE003508AF0018300310AF0C56
:101DF400AE0CAD0CAC0CFF3E031DF82E2C08B8073E
:101E04002D0803110318013E0319092FB9072E08E1
:101E140003110318013E0319102FBA072F080311E9
:101E24000318013E0319172FBB070830AC00031039
:101E3400B20DB30DB40DB50DAC0B192F3708360721
:101E4400AC00AD01AD0D2C08823EBC002D0803187A
:101E5400013EFF3EBD004B2F0130AC000310B80D16
:101E6400B90DBA0DBB0DAC0B302FB51F3A2F3B2F5C
:101E74003C2F38140130AC000310B20DB30DB40D77
:101E8400B50DAC0B3E2FFF30BC070318BD0AFF3065
:101E9400BD07BA1F4E2F4F2F2E2FB601B51F532F3C
:101EA400542F702FFF303205AC00FF303305AD00E6
:101EB400FF303405AE007F303505AF002F082E0407
:101EC4002D042C040319672F682F6B2FB601B60A53
:101ED400702F381C6E2F6F2F702F682F3608031940
:101EE400742F752FA62F0130B80700300318013066
:101EF400B907003003180130BA0700300318013065
:101F0400BB073B1C862F872FA62F3808AC00390847
:101F1400AD003A08AE003B08AF000130B0002F0D11
:101F2400AF0CAE0CAD0CAC0CB00B912F2F08BB005A
:101F34002E08BA002D08B9002C08B8000130BC07DF
:101F44000318BD0A0030BD073D08803AFF00803009
:101F54007F02031DAF2FFF303C02031CB22FB32FAF
:101F6400BE2F7F3083120313BB008030BA000030D1
:101F7400B9000030B800F32F831203133D08803AF0
:101F8400FF0080307F02031DC92F01303C0203187B
:101F9400CC2FCD2FD92F003083120313BB00003078
:101FA400BA000030B9000030B800B101F32F831239
:101FB40003133C08AC002C08B700FF30B805FF3011
:101FC400B9057F30BA050030BB05371CEA2FEB2F6B
:101FD400EC2FBA173708AC0003102C0CAD002D08F9
:101FE400BB003108AC002C08BB043B08A7003A082E
:101FF400A6003908A5003808A400080083160313B6
:10200400141905280628002811081F39031D0B2858
:102014000C2800280800031083120313530D540DD9
:10202400D5005508DB005B08031D19281A2823284E
:102034000030D4000030D3000030D2000030D10092
:1020440088285108D5005208D6005308D7005408F0
:10205400D8001F300310D80CD70CD60CD50CFF3E7B
:10206400031D2C285508D9005908DA00D317FF306E
:10207400D105FF30D205FF30D3050030D4059630AA
:10208400DB02DB1F4628472861285B08803A973E1D
:1020940003184D284E284F281A2801300310D40C59
:1020A400D30CD20CD10CFF3E031D50280130D500B7
:1020B4005508DB07031D5F2860284F287828203047
:1020C4005B02031C6628672873281A280130D50090
:1020D4000310D10DD20DD30DD40DD50B6A280130C8
:1020E400DB025B08031D7728782868285A0803193F
:1020F4007C287D288828D109D209D309D409D10A9A
:102104000319D20A0319D30A0319D40A08000310C5
:10211400720D730DF800780883120313A5002508C7
:10212400031D952896289F280030F3000030F20004
:102134000030F1000030F00046290310760D770DD1
:10214400F8007808A4002408031DA928AA28AB28AD
:102154009628F217FF30F005FF30F105FF30F20545
:102164000030F305F617FF30F405FF30F505FF30B6
:10217400F6050030F7050030A3000030A20000305F
:10218400A1000030A0007F30A502A0302407F80091
:102194007808A5022030F8007808A4000130F8007F
:1021A4000310A00DA10DA20DA30DF80BD2287708E2
:1021B4007302031DE72876087202031DE7287508D9
:1021C4007102031DE72874087002031CEA28EB2837
:1021D400FA287408F0027508031C750FF1027608DA
:1021E400031C760FF2027708031C770FF302201406
:1021F4000130F8000310F00DF10DF20DF30DF80BA2
:10220400FC280130A402031D08290929D028A51F90
:102214000C290D2927292508803A9F3E03181329E4
:1022240014291529962801300310A30CA20CA10C23
:10223400A00CFF3E031D16290130F8007808A507FD
:10224400031D2529262915293E2920302502031C92
:102254002C292D29392996280130F8000310A00DC6
:10226400A10DA20DA30DF80B30290130A5022508FC
:10227400031D3D293E292E292308F3002208F200DC
:102284002108F1002008F000080083120313D10094
:102294006E305102031C4F2950295D2A3F30A7009C
:1022A4000030A6000030A5000030A4006430F60021
:1022B4000030F7005108C200C3014208F800430887
:1022C400F9000A168A15A6240A168A1176088312BA
:1022D4000313C40001300310C40DFF3E031D6D2918
:1022E4000310440D7D3E84000A128A150A200A1642
:1022F4008A11C5000A128A150A200A168A11C60014
:102304000A128A150A200A168A11C7000A128A15A7
:102314000A200A168A11C8004808AB004708AA0018
:102324004608A9004508A8000A128A159F240A161F
:102334008A11831203132708D0002608CF0025082A
:10234400CE002408CD000A30F6000030F700510812
:10235400C200C3014208F2004308F3006430F000F5
:102364000030F1000A168A15E9230A168A11710849
:10237400F9007008F8000A168A15A6240A168A11AC
:10238400760883120313C40001300310C40DFF3E0A
:10239400031DC7290310440D593E84000A128A15EF
:1023A4000A200A168A11C5000A128A150A200A167A
:1023B4008A11C6000A128A150A200A168A11C70051
:1023C4000A128A150A200A168A11C8004808A700AA
:1023D4004708A6004608A5004508A4005008AB001D
:1023E4004F08AA004E08A9004D08A8000A128A1531
:1023F4009F240A168A11831203132708CC00260887
:10240400CB002508CA002408C9000A30F0000030B7
:10241400F1005108C200C3014208F2004308F3006E
:102424000A168A15E9230A168A11700883120313FF
:10243400C40001300310C40DFF3E031D1C2A031009
:10244400440D353E84000A128A150A200A168A11A0
:10245400C5000A128A150A200A168A11C6000A1231
:102464008A150A200A168A11C7000A128A150A2038
:102474000A168A11C8004808A7004708A60046089B
:10248400A5004508A4004C08AB004B08AA004A0864
:10249400A9004908A8000A128A159F240A168A115D
:1024A400831203132708C1002608C0002508BF00B3
:1024B4002408BE00512B0B305102031C622A632AEC
:1024C4000E2B3F30A7000030A6000030A5000030DE
:1024D400A4000A30F6000030F7005108C200C3011E
:1024E4004208F8004308F9000A168A15A6240A16B9
:1024F4008A11760883120313C40001300310C40D3B
:10250400FF3E031D802A0310440D593E84000A1225
:102514008A150A200A168A11C5000A128A150A2089
:102524000A168A11C6000A128A150A200A168A1186
:10253400C7000A128A150A200A168A11C800480818
:10254400AB004708AA004608A9004508A8000A12DB
:102554008A159F240A168A11831203132708D000B0
:102564002608CF002508CE002408CD000A30F0004C
:102574000030F1005108C200C3014208F2004308D0
:10258400F3000A168A15E9230A168A1170088312C1
:102594000313C40001300310C40DFF3E031DCD2AF4
:1025A4000310440D353E84000A128A150A200A16C7
:1025B4008A11C5000A128A150A200A168A11C60051
:1025C4000A128A150A200A168A11C7000A128A15E5
:1025D4000A200A168A11C8004808A7004708A6005E
:1025E4004608A5004508A4005008AB004F08AA00FF
:1025F4004E08A9004D08A8000A128A159F240A163D
:102604008A11831203132708C1002608C000250875
:10261400BF002408BE00512B3F30A7000030A600A5
:102624000030A5000030A4005108C200013003109E
:10263400C20DFF3E031D192B0310420D353E8400CD
:102644000A128A150A200A168A11C3000A128A1568
:102654000A200A168A11C4000A128A150A200A16C8
:102664008A11C5000A128A150A200A168A11C600A0
:102674004608AB004508AA004408A9004308A8007E
:102684000A128A159F240A168A1183120313270833
:10269400C1002608C0002508BF002408BE000800A9
:1026A4000A168A15CF220A168A110A168A152324B5
:1026B4000A168A110A128A15CA200A168A110230C9
:1026C40083160313C5004508D5000A168A1561222E
:1026D4000A168A116130F0000030F1000A168A15DA
:1026E40073220A168A110030F000F1000A168A15C6
:1026F40083230A168A11700883160313C500710810
:10270400C600C701C8014808F9004708F800460890
:10271400F7004508F60000300A168A1587260A16BF
:102724008A11790883160313D0007808CF0077083C
:10273400CE007608CD000A168A156A220A168A1176
:10274400033083160313C7000830C6007630C50073
:10275400C50BAA2BC60BAA2BC70BAA2B00000A1663
:102764008A1561220A168A115130F0000030F100F6
:102774000A168A1573220A168A110030F000F10035
:102784000A168A1583230A168A11700883160313FE
:10279400C5007108C600C701C8014808F900470808
:1027A400F8004608F7004508F60000300A168A15B6
:1027B40087260A168A11790883160313D400780829
:1027C400D3007708D2007608D1000A168A156A2247
:1027D4000A168A11033083160313C7000830C60093
:1027E4007630C500C50BF42BC60BF42BC70BF42BAA
:1027F40000000A168A1561220A168A118030F00038
:102804000030F1000A168A1573220A168A11F33071
:10281400F0000030F1000A168A1573220A168A1194
:102824000A168A156A220A168A11033083160313BC
:10283400C7000830C6007630C500C50B1F2CC60B78
:102844001F2CC70B1F2C00000A168A1561220A16BA
:102854008A118130F0000030F1000A168A157322C3
:102864000A168A110030F000F1000A168A15832333
:102874000A168A11700883160313C5007108C6006E
:10288400C701C8014808F9004708F8004608F700DE
:102894004508F60000300A168A1587260A168A119A
:1028A400790883160313CC007808CB007708CA0094
:1028B4007608C9000A168A156A220A168A11033094
:1028C40083160313C7000830C6007630C500C50B55
:1028D400692CC60B692CC70B692C0000F401F40A9F
:1028E40001300A168A15EF220A168A119130F30074
:1028F4008030F4000A168A1564240A168A113C30C2
:1029040083120313A700A030A6009030A5002E3038
:10291400A40083160313540883120313AB00831615
:102924000313530883120313AA00831603135208D4
:1029340083120313A900831603135108831203138C
:10294400A8000A128A159F240A168A1183120313F7
:10295400270883160313D40083120313260883164F
:102964000313D30083120313250883160313D20021
:1029740083120313240883160313D100F401F40A09
:1029840002300A168A15EF220A168A11B23083160B
:102994000313C5004508A0005408A4005308A3006D
:1029A4005208A2005108A10090300A128A116B202B
:1029B4000A168A119030F3000130F4000A168A15C1
:1029C40064240A168A11063083160313C5004508C9
:1029D400F40002300A168A15EF220A168A11AB3067
:1029E40083160313C5004508A0005008A4004F082F
:1029F400A3004E08A2004D08A10090300A128A11CB
:102A04006B200A168A119030F3000130F4000A1684
:102A14008A1564240A168A11C23083120313D5005E
:102A2400A230D4000030D3000030D2008316031348
:102A34004C0883120313D900831603134B08831223
:102A44000313D800831603134A0883120313D70011
:102A540083160313490883120313D6000A168A1136
:102A640078250A168A118312031355088316031353
:102A7400CC0083120313540883160313CB00831270
:102A84000313530883160313CA0083120313520853
:102A940083160313C9000C30C5004508F400023046
:102AA4000A168A15EF220A168A11A4308316031314
:102AB400C5004508A0004C08A4004B08A3004A0820
:102AC400A2004908A10090300A128A116B200A164C
:102AD4008A119030F3000130F4000A168A15642438
:102AE4000A168A11672B0A128A110028831203130B
:102AF40055088039DA005A08E2005508DA005A0706
:102B0400DB005B08E400D41F882D892D8A2D641412
:102B1400640803198E2D8F2D9F2D640A031D932D98
:102B2400942D9C2D0030D5000030D4000030D3000B
:102B34000030D200D417D501A72D0030D5000030C5
:102B4400D4000030D3000030D20059088039DA00B4
:102B54005A08E300630862060319B12DB22DB32DA0
:102B640062175908DA005A07DB005B08E300D81F34
:102B7400BC2DBD2DBE2D631463080319C22DC32DB6
:102B8400D32D630A031DC72DC82DD02D0030D900C5
:102B94000030D8000030D7000030D600D817D90153
:102BA400DB2D0030D9000030D8000030D7000030D1
:102BB400D600640863020318E02DE12D252E621F60
:102BC400E42DE52DE92D8030DA005A08E206640888
:102BD400DA005A08E5006308DA005A08E4006508D8
:102BE400DA005A08E3005208DA005A08E5005608E9
:102BF400DA005A08D2006508DA005A08D6005308E9
:102C0400DA005A08E5005708DA005A08D3006508C4
:102C1400DA005A08D7005408DA005A08E5005808C0
:102C2400DA005A08D4006508DA005A08D8005508B2
:102C3400DA005A08E5005908DA005A08D500650890
:102C4400DA005A08D900E5016308DA00DB015B0801
:102C5400DD0064085A02DC00031CDD035D08803AD1
:102C6400FF0080307F02031D392E1A305C02031CE2
:102C74003C2E3D2E7A2E831203135508540453041C
:102C84005204031D462E482E0130492E0030DA002E
:102C94005A08E5000030D5000030D4000030D300DD
:102CA4000030D2006308DA005A08E400822E651C62
:102CB4005C2E5D2E662E6508DA0003105A0C01386E
:102CC400DB005B08E500682E0310E50C521C6B2E3C
:102CD4006C2E6D2EE5170130DA00550DD50CD40C91
:102CE400D30CD20CDA0B6F2E0130DA005A08E40749
:102CF4008312031363086402031C812E822E592E4F
:102D0400621B852E862ED12E6408031D8A2E8B2EDF
:102D1400942E0030D5000030D4000030D3000030B1
:102D2400D200FF2F5608D207570803110318013E9B
:102D340003199D2ED307580803110318013E0319E4
:102D4400A42ED407590803110318013E0319AB2E0E
:102D5400D507551CAE2EAF2E852F651CB22EB32E73
:102D6400BC2E6508DA0003105A0C0138DB005B083E
:102D7400E500BE2E0310E50C521CC12EC22EC32E3C
:102D8400E5170130DA00550DD50CD40CD30CD20C58
:102D9400DA0BC52E0130DA005A08E407852F5508EE
:102DA400803AFF005908803A7F02031DE32E580839
:102DB4005402031DE32E57085302031DE32E560845
:102DC40052020318E62EE72E3F2FFF30DA00FF30C1
:102DD400DB00FF30DC00FF30DD005608DE00570862
:102DE400DF005808E0005908E1005208DE025308E9
:102DF400031C530FFE2EFF2EDF025408031C540F36
:102E0400042F052FE0025508031C550F0A2F0B2F22
:102E1400E1025E08DA075F0803185F0F122F132F11
:102E2400DB0760080318600F182F192FDC076108EF
:102E34000318610ADD075D08D5005C08D4005B084F
:102E4400D3005A08D2008030DA005A08E206E509B5
:102E5400E50A6508031D2F2F302F4D2F0130D207AF
:102E6400003003180130D307003003180130D407B1
:102E7400003003180130D5074D2F5608D2025708E9
:102E8400031C570FD3025808031C580FD4025908C7
:102E9400031C590FD5025508540453045204031D4E
:102EA400542F552F812F6508031D592F5A2F812F19
:102EB4000030D5000030D4000030D3000030D20000
:102EC400FF2F0130DA000310D20DD30DD40DD50D30
:102ED400DA0B652FE51F6F2F702F712F5214651CAD
:102EE400742F752F782F0314E50D7A2F0310E50D39
:102EF400640803197E2F7F2F812F0130E402D41F31
:102F0400842F852F632FE301E51F892F8A2F982FA4
:102F140065087F3903198F2F902F932FE301E30A5C
:102F2400982F521C962F972F982F902F63080319D0
:102F34009C2F9D2FD12F0130D20700300318013070
:102F4400D307003003180130D407003003180130D0
:102F5400D507551CAE2FAF2FD12F5208DA005308D6
:102F6400DB005408DC005508DD000130DE005D0D97
:102F7400DD0CDC0CDB0CDA0CDE0BB92F5D08D500A4
:102F84005C08D4005B08D3005A08D200640A031911
:102F9400CC2FCD2FD12F0130DA005A08E407640A70
:102FA4000319D52FD62FDB2F6408031DDA2FDB2F4F
:102FB400E92F0030D5000030D4000030D3000030B9
:102FC400D2006408031DE72FE82FE92FE201641CF7
:102FD400EC2FED2FEF2FD417F32F7F30DA005A08A0
:102FE400D4056408DA0003105A0CDB005B08D50032
:0C2FF400E21FFD2FFE2FFF2FD517080055
:1034A600F000700883120313860008006400800190
:1034B600840A04060319003404065A2A0A168A11D5
:1034C60000200A168A1583160313111408000A161B
:1034D6008A1100200A168A1583160313111508008F
:1034E6000A168A1100200A168A1570088312031319
:1034F6009300080073087204710470040319842A87
:10350600852A872A8030F3060800F100F0013A3058
:10351600710203188F2A902A982A30307102031CF0
:10352600952A962A982AF001F00A700C0800F300F2
:1035360083120313071073080A168A1553220A16F4
:103546008A158312031387140B30F2006230F100E0
:10355600F10BAB2AF20BAB2A000083120313871080
:103566000800F20083120313071472080A168A155C
:1035760053220A168A158312031387141A30F10090
:10358600F10BC32A00008312031387101A30F100CF
:10359600F10BCB2A00000800831603178801890166
:1035A60083160313071087108601831203138601FF
:1035B6008316031388018312031388010030A300C6
:1035C6000130A2008630A100A030A0000A168A159C
:1035D600B1230A168A150800F6007603031DF42A9D
:1035E600F52A012B74087F3EF5007508F700770869
:1035F6000A168A159A220A168A15122B02307606A0
:10360600031D062B072B122B7408BF3EF500750809
:10361600F70077080A168A159A220A168A150800EC
:10362600803083120313E9066D08D5006C08D400B8
:103636006B08D3006A08D2006908D9006808D80068
:103646006708D7006608D6000A168A1178250A1672
:103656008A15831203135508E9005408E800530835
:10366600E7005208E6000800F401F501701C3C2B47
:103676003D2B432B7208F4070318F50A7308F50768
:1036860001300310F20DF30DFF3E031D442B0130F4
:103696000310F10CF00CFF3E031D4B2B7008710458
:1036A600031D562B572B392B7508F1007408F000B3
:1036B6000800F800F401F5017008F200F301720841
:1036C600F6007308F700781C692B6A2B702B7608B6
:1036D600F4070318F50A7708F50701300310F60D0D
:1036E600F70DFF3E031D712B0310F80C7808031D20
:1036F6007D2B7E2B662B7508F1007408F000080000
:103706000A168A1100200A168A15831603139115C4
:103716000A168A1100200A168A1583120313130843
:10372600F200F3017208F4007308F5000A168A1114
:1037360000200A168A1570037104031DA32BA42BFF
:10374600A82B831603139112AB2B83160313911622
:1037560011167508F1007408F0000800283083126D
:103766000313940083160313910183120313200895
:10377600A4002108A5002208A6002308A7000230FD
:103786000310A40DA50DA60DA70DFF3E031DC32B0B
:103796002708F3002608F2002508F1002408F000A7
:1037A6000030F7007A30F6001230F5000030F400F1
:1037B6000A128A1105200A168A157008FF3E83161A
:1037C6000313930094018715071608007008710407
:1037D6000319EE2BEF2B1E2CF501F50AFD2B0130FC
:1037E6000310F00DF10DFF3E031DF32B0130F40025
:1037F6007408F507F11F002C012CF22B71087302D7
:10380600031D072C70087202031C0A2C0B2C112CAA
:103816007008F2027108031CF303F302013003106F
:10382600F10CF00CFF3E031D122C0130F502031DB6
:103836001D2C1E2C012C7308F1007208F0000800E4
:1038460000300A168A1553220A168A153430F500F6
:10385600F130F400F40B2D2CF50B2D2C322C3F30CF
:103866000A168A159A220A168A151A30F500F830B1
:10387600F400F40B3C2CF50B3C2C00003F300A16F0
:103886008A159A220A168A158530F400F40B492CFB
:103896003F300A168A159A220A168A1538300A16F1
:1038A6008A159A220A168A150C300A168A159A2241
:1038B6000A168A1506300A168A159A220A168A15D3
:1038C6000800F801F901892C78087307F6007408D6
:1038D600F5000318F50AF81F712CF5037508F700B3
:1038E600770883120313FF00760884000A128A15EC
:1038F60000200A168A150A168A15B4220A168A158F
:103906000130F8070318F90A0030F9077808730739
:10391600F6007408F5000318F50AF81F932CF50352
:103926007508F700770883120313FF0076088400F2
:103936000A128A1500200A168A15003A031DA42CBD
:10394600A52C672C0800FB01FC01760877040319F7
:10395600AD2CAE2CE52CFD01FD0ABC2C013003106C
:10396600F60DF70DFF3E031DB22C0130FA007A0862
:10397600FD07F71FBF2CC02CB12C01300310FB0D27
:10398600FC0DFF3E031DC12C77087902031DCD2CCB
:1039960076087802031CD02CD12CD82C7608F80295
:1039A6007708031CF903F9027B1401300310F70CA6
:1039B600F60CFF3E031DD92C0130FD02031DE42C3D
:1039C600E52CC02C7C08F7007B08F60008000030C8
:1039D6007005F80000307105F90080307205FA00B4
:1039E6007F307305FB007B087A0479047804031D95
:1039F600FD2CFE2C062D0030F3000030F2000030C6
:103A0600F1000030F00000307405F8000030750554
:103A1600F90080307605FA007F307705FB007B08D9
:103A26007A0479047804031D192D1A2D222D0030ED
:103A3600F7000030F6000030F5000030F40077089B
:103A46007306031D302D76087206031D302D75088A
:103A56007106031D302D740870060319332D342D9D
:103A6600362D0310372D03140800730872047104F1
:103A7600700403193F2D402D832DF901F90A502DAD
:103A86000130F8000310F00DF10DF20DF30DF80BF7
:103A9600452D0130F8007808F907F31F532D542DF2
:103AA600432D73087702031D622D72087602031DEB
:103AB600622D71087502031D622D70087402031CC5
:103AC600652D662D742D7008F4027108031C710FA4
:103AD600F5027208031C720FF6027308031C730FBB
:103AE600F70201300310F30CF20CF10CF00CFF3E60
:103AF600031D752D0130F902031D822D832D542DD2
:103B06007708F3007608F2007508F1007408F000F3
:103B16000800F601F31F902D912D982DF209F30957
:103B2600F20A0319F30AF601F60AF11F9B2D9C2DE2
:103B3600A12DF009F109F00A0319F10A70087104C0
:103B46000319A62DA72DD62DF501F50AB52D0130A1
:103B56000310F00DF10DFF3E031DAB2D0130F400F7
:103B66007408F507F11FB82DB92DAA2D7108730237
:103B7600031DBF2D70087202031CC22DC32DC92D53
:103B86007008F2027108031CF303F30201300310FC
:103B9600F10CF00CFF3E031DCA2D0130F502031D8A
:103BA600D52DD62DB92D76080319DA2DDB2DE02D6E
:103BB600F209F309F20A0319F30A7308F10072080D
:103BC600F000080000307005F80000307105F900BB
:103BD60080307205FA007F307305FB007B087A049B
:103BE60079047804031DF82DF92D012E0030F30019
:103BF6000030F2000030F1000030F00000307405B3
:103C0600F80000307505F90080307605FA007F303F
:103C16007705FB007B087A0479047804031D142ECB
:103C2600152E1D2E0030F7000030F6000030F5008E
:103C36000030F400F31F202E212E452E0030F80010
:103C46000030F9000030FA008030FB007008F802FE
:103C56007108031C710F302E312EF9027208031CF5
:103C6600720F362E372EFA027308031C730F3C2E82
:103C76003D2EFB027B08F3007A08F2007908F1007A
:103C86007808F000F71F482E492E6D2E0030F800F8
:103C96000030F9000030FA008030FB007408F802AA
:103CA6007508031C750F582E592EF9027608031C49
:103CB600760F5E2E5F2EFA027708031C770F642EAE
:103CC600652EFB027B08F7007A08F6007908F500F6
:103CD6007808F4008030F3068030F7067708730220
:103CE600031D7F2E76087202031D7F2E7508710252
:103CF600031D7F2E740870020318822E832E852ED4
:103D06000310862E0314080083120313A000200854
:103D160003198E2E8F2EA32EF91F922E932EA32ECD
:103D26007609A2007709A3007809A4007909A500FD
:103D3600A20A0319A30A0319A40A0319A50AAB2E9A
:103D46007908A5007808A4007708A3007608A200E1
:103D56007908780477047604031DB22EB32EBC2EA0
:103D66000030F9000030F8000030F7000030F600AF
:103D7600422F9630FA007A08A100CE2E0130FA00C2
:103D86007A08A10701300310A50CA40CA30CA20C01
:103D9600FF3E031DC62EFE302505031DD32ED42E51
:103DA600C12EF02E0130FA007A08A1070130A207D1
:103DB600003003180130A307003003180130A407B0
:103DC600003003180130A50701300310A50CA40C20
:103DD600A30CA20CFF3E031DE82EFF302505031D94
:103DE600F52EF62ED52E022F0130A1020130FA0053
:103DF6000310A20DA30DA40DA50DFA0BFB2EA41BFB
:103E0600052F062F0C2F0230210203180B2F0C2F23
:103E1600F72E21180F2F102F182FFF30A205FF3075
:103E2600A3057F30A405FF30A5050310A10C2108CA
:103E3600FA00FB01FC01FD0118300310FA0DFB0D21
:103E4600FC0DFD0DFF3E031D202F7A08A2047B0802
:103E5600A3047C08A4047D08A50420080319342FB4
:103E6600352F3A2FF91F382F392F3A2FA517250846
:103E7600F9002408F8002308F7002208F6000800D5
:103E86007008F8007108F9007208FA000310790D3D
:103E96007A0DFB007B0883120313A5002508031D7A
:103EA600552F562F5F2F0030F3000030F200003000
:103EB600F1000030F000FF2F7408F8007508F900D3
:103EC6007608FA000310790D7A0DFB007B08A40032
:103ED6002408031D6F2F702F712F562FF117FF30F7
:103EE600F005FF30F1050030F205F517FF30F40557
:103EF600FF30F5050030F6050030A3000030A200C3
:103F06000030A1000030A0007F30A50298302407C1
:103F1600F8007808A5021830F8007808A4000130E7
:103F2600F8000310A00DA10DA20DA30DF80B942F00
:103F360076087202031DA52F75087102031DA52FB1
:103F460074087002031CA82FA92FB42F7408F0025E
:103F56007508031C750FF1027608031C760AF20237
:103F6600201401300310F00DF10DF20DFF3E031D7C
:103F7600B52F0130A402031DC12FC22F922FA51FFA
:103F8600C52FC62FE02F2508803A973E0318CC2F61
:103F9600CD2FCE2F562F01300310A30CA20CA10C4F
:103FA600A00CFF3E031DCF2F0130F8007808A507AF
:103FB600031DDE2FDF2FCE2FF72F18302502031C0F
:103FC600E52FE62FF22F562F0130F8000310A00D33
:103FD600A10DA20DA30DF80BE92F0130A5022508AE
:103FE600031DF62FF72FE72F2308F3002208F20010
:0A3FF6002108F1002008F000080087
:04400E00D630FF3F6A
:00000001FF
