:060000000A128A110C280F
:10000800FE00030EF1000A08F2000A128A111628EF
:100018000A128A110F28F401F501F60183010A1268
:100028008A11CE28831203138C1D1B281C287D28B7
:100038001412141B202821282528941F2428252839
:100048002C281308F0007008F500141394131416E4
:1000580083160313941A312832285928141935287D
:10006800362859280430F000F00B38280000831295
:1000780003131308F0007008F50042284328831280
:1000880003138C11141683160313141C4C284D28C3
:100098004728831203131308F0007008F600A630EF
:1000A800F000F00B552800007A28941A5C285D2887
:1000B8007A28141D602861287A28831203131308EC
:1000C800F0007008F500831603131410831203134D
:1000D800080893001416A630F000F00B71280000F1
:1000E80083160313141879287A28742883120313A3
:1000F8008C110B1C802881289028061884288528B4
:1001080089280130F0007008880786188C288D2807
:100118008F28013088020B1072088A00710E830044
:10012800FE0E7E0E09008316031788018901FF3031
:10013800831603138600880183120313880183162C
:100148000313811315149514161496148B178B1515
:100158000B1060300A128A11B4200A128A110800A2
:10016800F3007308831603139300363083120313C6
:100178009400803083160313940001309100871592
:1001880007168B170B17831203138C11831603138F
:100198008C1508000A128A1197200A128A11D3288E
:0601A8000A128A110C2866
:04400E00D630FF3F6A
:00000001FF
